:020000040800F2
:1000000058210020390200085D1500085915000824
:100010005B1500082F040008E51700080000000029
:100020000000000000000000000000006115000852
:1000300031040008000000005F1500086315000887
:10004000530200085302000853020008530200083C
:10005000530200085302000853020008530200082C
:10006000530200085302000853020008530200081C
:10007000530200085302000853020008530200080C
:100080005302000853020008530200080000000059
:100090000000000000000000000000005302000803
:1000A00053020008530200085302000853020008DC
:1000B00053020008530200085302000853020008CC
:1000C00053020008530200085302000853020008BC
:1000D0005302000853020008530200080000000009
:1000E00053020008530200085302000800000000F9
:1000F00000000000000000000000000053020008A3
:1001000000000000530200085302000853020008D8
:1001100000000000000000000000000000000000DF
:10012000530200085302000853020008530200085B
:100130005302000800000000000000000000000062
:100140000000000000000000000000005302000852
:10015000530200085302000853020008530200082B
:1001600053020008530200080000000000000000D5
:10017000000000000000000000000000000000007F
:100180000000000053020008000000000000000012
:10019000530200085302000800F002F800F03CF897
:1001A0000AA090E8000C82448344AAF10107DA45D2
:1001B00001D100F031F8AFF2090EBAE80F0013F0E8
:1001C000010F18BFFB1A43F001031847401A000043
:1001D000601A0000103A24BF78C878C1FAD85207D4
:1001E00024BF30C830C144BF04680C6070470000B1
:1001F0000023002400250026103A28BF78C1FBD830
:10020000520728BF30C148BF0B6070471FB501F0CF
:1002100035FC1FBD10B510BD00F0D0F81146FFF73A
:10022000F5FF01F01CFC00F0EEF803B4FFF7F2FF5D
:1002300003BC00F0F5F80000094880470948004772
:10024000FEE7FEE7FEE7FEE7FEE7FEE7FEE7FEE786
:10025000FEE7FEE704480549054A064B70470000E3
:100260000D160008990100085801002058210020AF
:10027000581100205811002053EA020C00F0698048
:100280002DE9F04B4FF00006002B1FBFB3FA83F5AA
:1002900003FA05F424FA05F65E4012BF1643B2FADB
:1002A00082F502FA05F4C5F120051EBF22FA05FC0D
:1002B00044EA0C04203556EA044C4FEA144418BFB3
:1002C000641C4FF000084FF00009904271EB030CE2
:1002D00039D3002919BFB1FA81F701FA07F6B0FA4C
:1002E00080F700FA07F6C7F120071EBF20FA07FCC7
:1002F00046EA0C062037B6FBF4FCA7EB0507103FD7
:1003000007F01F0BCBF120062CFA06F60CFA0BFBBC
:1003100044BFB3460026202FA4BF5E464FF0000B1B
:100320005BEA060C08BF4FF0010B19EB0B0948EB19
:100330000608ABFB027C06FB02CC0BFB03CCC01B0C
:1003400071EB0C01C1E70B46024641464846BDE849
:10035000F08B13B5084318BF4FF0FF300146AFF3E1
:100360000080BDE81C4070474FF0000200B5134606
:1003700094469646203922BFA0E80C50A0E80C50C5
:10038000B1F12001BFF4F7AF090728BFA0E80C5076
:1003900048BF0CC05DF804EB890028BF40F8042B6F
:1003A00008BF704748BF20F8022B11F0804F18BFDC
:1003B00000F8012B7047704770477047754600F092
:1003C0002BF8AE4605006946534620F007008546E7
:1003D00018B020B5FFF73EFFBDE820404FF0000603
:1003E0004FF000074FF000084FF0000BAC46ACE8B0
:1003F000C009ACE8C009ACE8C009ACE8C00921F00C
:1004000007018D46704710B50446AFF300802046C3
:10041000BDE81040FFF709BF0048704710000020FA
:1004200001491820ABBEFEE7260002007047FEE738
:100430007047EFF3108072B6FEE700002DE9FE4F23
:10044000804694480C4640444FEAB026072E00F2FE
:100450001C810120B04010F09F0F00F01681206831
:100460000021B1EB104F01D180B218B98A48AD21FB
:1004700001F0F4FA6068122800F2EA800121874A4C
:100480008140114200F0E48085480721804508BF83
:100490000421042E38BF314604F110004FF0010C46
:1004A00003254FF0000A4FF0000B00260091019049
:1004B000102E08BFBDE8FE8F20680CFA06F910EA7E
:1004C000090F00F0BF80606800F003014A1E012A96
:1004D00021D8E268042A09D36F48C02101F0BEFA8E
:1004E0006068E2684FF0010C00F00301D8F8087072
:1004F00005FA0BF302FA0BF227EA03031A43C8F8D2
:100500000820C0F30012D8F80430B24023EA0903EF
:100510001A43C8F80420032915D0A168032907D37A
:100520005D48D12101F09AFAD4E901014FF0010CA4
:10053000D8F80C3005FA0BF201FA0BF123EA0202AB
:100540001143C8F80C1000F00301022928D10198CA
:100550000068102806D281B249F2F77222FA01F13E
:10056000C90707D14C48DE2101F078FA01984FF015
:10057000010C02E04EA101EB80006FF0030303EADF
:10058000560343440AF01C010F2200681F6A8A4088
:1005900027EA0202884010431862606800F00301F5
:1005A000D8F8003005FA0BF201FA0BF123EA020247
:1005B000114310F4403FC8F8001043D000200290CF
:1005C0003A48384B0146006826F0030240F4804068
:1005D000086008681F4600F4804002901A44029B9D
:1005E000434B0AF00C000F211D46D358814023EAEB
:1005F0000101009B03FA00F008435051386862681B
:1006000040EA0901D30358BF20EA0901396078683C
:10061000930340EA090158BF20EA09017960B868EC
:10062000D30240EA090158BF20EA09011E48B96017
:1006300003460068032540EA0901920258BF20EAF8
:10064000090119600AF1040A0BF1020B01362FE7C8
:10065000B0F5881F3FF418AFB0F5901F3FF414AF0A
:10066000B0F5041F3FF410AFB0F5081F3FF40CAF16
:10067000B0F5441F3FF408AFB0F5481F3FF404AF96
:100680000548AE2101F0EAF9FEE60348AC2101F08D
:10069000E5F9E4E60000FEBFEA1A00080F000600D4
:1006A00000100240003C01400C3C01404438024034
:1006B0000000000001000000020000000000000037
:1006C0000400000005000000060000000700000014
:1006D00008000000090000000A00000000000000FF
:1006E0000C00000000000000000000000F000000EF
:1006F00008FCFFFFB0B50D46044621B911484FF480
:10070000DB7101F0ABF9606900EA050125EA000040
:1007100040EA0140A061B0BD70B516460C460546E2
:1007200021B9084840F29D1101F098F93EB1012E1F
:1007300006D004484FF4CF7101F090F900E0240492
:10074000AC6170BDEA1A0008B2480068704700BF8B
:10075000F8B5002800F08B8004460068A74988425D
:100760000AD08449884207D08349884204D083480C
:1007700040F2BF1101F072F9606881490138884286
:1007800004D37E484FF4E07101F068F9A06840F4AA
:100790008040B0F5804F04D0784840F2C11101F09C
:1007A0005DF9E068B0F5806F04D374484FF4E171EF
:1007B00001F054F9206940F40040B0F5404F04D0F6
:1007C0006E4840F2C31101F049F96069022804D370
:1007D0006A484FF4E27101F041F9A0696FF0FE013F
:1007E000084204D0654840F2C51101F037F9E069CC
:1007F00040F04000402804D060484FF4E37101F01D
:100800002DF9206A40F08000802804D05B4840F237
:10081000C71101F023F994F83D0028B9002084F8AD
:100820003C00204600F0B8F8242084F83D00206801
:10083000016821F001010160016841F4004101609B
:10084000016821F40041016000F06EFA4D494E4B01
:10085000002288424FF0000138BF0121984238BF82
:1008600001226368494DAB4238BF0A460AB10120F4
:10087000F8BD4749474EB0FBF1F22168B3424D68DD
:1008800025F03F0545EA02054D600D6A25F03F055C
:1008900011D801322A430A625A000138B0FBF2F043
:1008A0004CF6FF7301306FF31F30042898BF04200B
:1008B000CA699A4337E04FF4967672434FF47A76DA
:1008C000B2FBF6F2013801322A430A62CA694CF6D9
:1008D000FF75AA43A56845B119265E43B0FBF6F63D
:1008E0000427013667F31F3606E003EB4306B0FB2F
:1008F000F6F601366FF31F36360509D055B11925C6
:100900006B43B0FBF3F00423013063F31F3008E0C6
:10091000012008E003EB4303B0FBF3F001306FF379
:100920001F3040F400401043C861E0690A6804F1D8
:100930000C0622F0C0021043226A10430860886847
:1009400048F2FF3290436CCE184310438860C86869
:1009500020F0FF0028433043C860086840F00100E1
:10096000086000202021206484F83D10206384F872
:100970003E00F8BD00580040005C0040241B000809
:10098000801A060080841E0000093D00A186010037
:1009900040420F00A0860100B0B586B0044601A811
:1009A0001421FFF7E1FC21681448814223D100257E
:1009B000134C0095216800F5D83041F00201216008
:1009C000216801F002010091042105910321CDE984
:1009D000035112210291C0210191009901A9FFF751
:1009E0002DFD0095206940F400102061206900F47D
:1009F00000100090009806B0B0BD00BF0054004049
:100A0000303802401F48034900780A6810440860E3
:100A1000704700BF5001002080B50B48016841F4C9
:100A200000710160016841F480610160016841F476
:100A300080710160032000F071F80F2000F006F8CB
:100A400000F022F8002080BD003C024070B50D4E41
:100A5000044630784FF47A71B1FBF0F0BC49096874
:100A6000B1FBF0F000F0BEFB01250F2C08D838B91F
:100A70004FF0FF3021460022002500F021F874607D
:100A8000284670BD0000002082B000200B49019074
:100A90004A6842F480424A604A6802F48042019205
:100AA000019A0090086840F080500860086800F0E3
:100AB00080500090009802B0704700BF403802405C
:100AC00070B514460E460546102A03D31D48AA21C8
:100AD00000F0C4FF102E03D31A48AB2100F0BEFF74
:100AE00019484FF0FF320068C0F30220C11E80F0A9
:100AF000070038BF0021042828BF042002FA00F0B4
:100B000026EA0000884002FA01F124EA01010143CB
:100B10002846BDE8704000F08FBF00BF10B5044606
:100B20000338052803D30748922100F097FF0648B1
:100B30004FF6FF0201681140044A64F30A21114391
:100B4000016010BDAE1A00080CED00E00000FA05CF
:100B50002DE9F041002800F0A080044600680D4611
:100B600001380F2804D36C484FF4177100F076FF5A
:100B7000082D04D3684840F25D2100F06FFF674EF6
:100B8000D6F8000400F00700A84207D286F8005407
:100B9000D6F8000400F00700A8427ED12068B046D5
:100BA00081071ED5410703D5B16841F4E051B1601A
:100BB000010703D5B16841F46041B160A1684FEA13
:100BC00031120F2A00F29180012303FA02F24FF64C
:100BD00001731A4200F08980B26822F0F0021143DA
:100BE000B160C00749D1D8F8000400F00700A8425E
:100BF00007D988F80054D8F8000400F00700A8428C
:100C00004BD12068410711D5E1684FEAB122072A8C
:100C100073D8012303FA02F212F0F10F6DD0D8F865
:100C2000082022F4E0521143C8F80810000712D53A
:100C300020694FEAB021072967D8012202FA01F1A1
:100C400011F0F10F61D0D8F8081021F4604141EAA9
:100C5000C000C8F8080000F081F8D8F80810304A41
:100C6000C1F30311515CC840394908602D48006840
:100C7000FFF7ECFE0020BDE8F0816068042805D392
:100C8000254840F2872100F0E9FE6068811E0229B4
:100C9000424605D21168890107D40120BDE8F081E0
:100CA00001281ED111688903F7D5916821F003014D
:100CB00008439060FFF748FD064641F288374146F9
:100CC0006068D8F8081001F00C01B1EB800F3FF418
:100CD0008AAFFFF739FD801BB842F0D90320BDE889
:100CE000F08111688907D8D5DFE70B484FF42071F0
:100CF00000F0B4FE2068A1686EE7074840F2C52105
:100D000000F0ACFE2068E16889E703484FF43371D6
:100D100000F0A4FE206996E75D1B00080038024041
:100D2000961A00080400002009480A49006809686A
:100D3000094AC1F38221515CC84070470448054903
:100D400000680968044AC1F34231515CC8407047E9
:100D50000800002008380240A61A000810B5134CFD
:100D6000606800F00C00082804D0042814BF104864
:100D7000104810BD2268206802F03F0240020D4872
:100D80005CBF42F20040C0F2F40021680023C1F3CE
:100D90008811A0FB0101FFF76FFA21680222C1F35D
:100DA000014102EB4101B0FBF1F010BD04380240FB
:100DB0000024F40040787D012DE9FC41002800F07A
:100DC000058104460068102805D3DFF80C04E821EB
:100DD00000F044FE2068D24EC00751D0606850B188
:100DE000B0F5803F07D0B0F5A02F04D0DFF8E803BE
:100DF000ED2100F033FEB06800F00C00042805D1AE
:100E0000306880033CD56068D0BBDFE0B06800F09C
:100E10000C00082802D170684002F1D46768B7F569
:100E2000803F06D03068B7F5A02F12D140F4802063
:100E30003060306840F480303060FFF785FC054654
:100E4000306880031CD4FFF77FFC401B6428F7D96F
:100E50000EE120F480303060306820F48020306073
:100E6000FFF772FC0546002FEAD106E0FFF76CFCA5
:100E7000411B0320642900F2A68130688003F5D469
:100E8000207880073CD5E068022804D3D24840F29D
:100E90001F1100F0E3FD2069202804D3CE484FF451
:100EA000907100F0DBFDB06810F00C0F07D0B06857
:100EB00000F00C00082809D17068400206D43068A0
:100EC000800716D5E068012813D07FE0E06800288D
:100ED00000F01481C14801210160FFF735FC05468F
:100EE0003068800705D4FFF72FFC401B0228F7D994
:100EF000BEE02069316821F0F80141EAC0003060AD
:100F00002078000728D56069022805D3B2484FF43D
:100F1000B07100F0A3FD6069B04970B10120C1F863
:100F2000800EFFF711FC0546706F800714D4FFF7A1
:100F30000BFC401B0228F7D99AE00020C1F8800E74
:100F4000FFF702FC0546706F800705D5FFF7FCFB35
:100F5000401B0228F7D98BE02078400739D4A069DC
:100F6000032805D39C4840F2CF1100F077FDA0691B
:100F7000002800F02781B16801F00C0108297AD11E
:100F8000012823D0E169706800F480028A421DD1F3
:100F9000216A00F03F028A4218D147F6C071626AA6
:100FA0000140B1EB821F11D1A16A4FF6FF72C90354
:100FB0009143A1F5803100F440328A4206D1E16AC2
:100FC00000F07060B0EB016F00F0FC800120BDE824
:100FD000FC81A068052805D8012101FA00F010F075
:100FE000230F04D17C484FF4C67100F037FD306CFC
:100FF0004FF00008C0000CD4CDF80480306C4FF0E6
:10100000010840F080503064306C00F08050019056
:101010000198734F3868C0050FD4386840F4807069
:101020003860FFF791FB05463868C00505D4FFF727
:101030008BFB401B0228F7D91AE0A768012F05D0C7
:10104000306F052F7ED140F004003067306F40F0E4
:1010500001003067FFF778FB054641F28837306FB3
:10106000800700F18880FFF76FFB401BB842F6D97C
:101070000320BDE8FC81022854D1E06940F48000DF
:10108000B0F5800F04D054484FF4EC7100F0E6FC4A
:10109000206A402804D3504840F2D91100F0DEFC09
:1010A000606A3238B0F5BF7F04D94B484FF4ED7118
:1010B00000F0D4FCA06A082800F28780012101FA20
:1010C00000F010F4AA7F00F08080E06A02380E2859
:1010D00004D341484FF4EE7100F0C0FC3F4F0020B4
:1010E0003866FFF731FB0546306880014CD5FFF7C5
:1010F0002BFB411B03200229F6D964E0374800216D
:101100000160FFF721FB0546306880077FF5F8AEE8
:10111000FFF71AFB411B03200229F5D953E000BF5A
:10112000003802402D4800210166FFF70DFB044600
:101130003068800146D5FFF707FB011B0320022919
:10114000F6D940E020F001003067306F20F0040055
:101150003067FFF7F9FA0546002F7FF47EAF41F2C2
:101160008837306F800706D5FFF7EEFA411B032062
:10117000B942F6D927E0B8F1000F3FF4F0AE306C79
:1011800020F080503064EAE61C341FCC084340EA6B
:101190008210D9034FF6FF72914340EA0460A1F533
:1011A00080310843706001203866FFF7CDFA0446AD
:1011B0003068800106D4FFF7C7FA011B032002291B
:1011C000F6D900E00020BDE8FC81034840F2DB11C5
:1011D00000F044FC79E700BF5D1B000800004742B7
:1011E00000700040411E0020B0EB116F1CBF0120B9
:1011F0007047044AF023516003490B700721906047
:101200001160704710E000E023ED00E0002869D095
:10121000B0B504460068B0F1804F19D074498842D7
:1012200016D07449884213D07349884210D073494C
:1012300088420DD0724988420AD07249884207D04C
:101240007149884204D0714840F2131100F006FC45
:10125000A0684FEA3010062846D8012101FA00F0B4
:1012600010F0570F40D0206950B1B0F5807F07D003
:10127000B0F5007F04D0654840F2151100F0EEFB98
:10128000A069251D40F08000802804D05F484FF4FD
:101290008B7100F0E3FB94F83D0028B9002084F83E
:1012A0003C00204600F026F8022084F83D0020682B
:1012B000294600F0B3F9012084F8460084F83E0086
:1012C00084F83F0084F8400084F8410084F842002C
:1012D00084F8430084F8440084F8450084F83D0015
:1012E0000020B0BD0120704748484FF48A7100F0DB
:1012F000B5FBB8E77047000010B504460068B0F1D0
:10130000804F19D0E749884216D0E749884213D068
:10131000E649884210D0E24988420DD0E44988422B
:101320000AD0E549884207D0E249884204D03748CC
:101330004FF4CA7100F092FB94F83D0001281CBFE5
:10134000012010BD022084F83D002068B0F1804FDC
:101350000ED0D44988420BD0D349884208D0D34913
:10136000884205D0D249884202D0CD49884204D172
:10137000816801F00701062903D0016841F00101ED
:101380000160002010BD00BF10B504460068B0F138
:10139000804F1AD0C349884217D0C349884214D01D
:1013A000C249884211D0BE4988420ED0C049884205
:1013B0000BD0C149884208D0BE49884205D01348A5
:1013C00040F2B91100F04AFB2068016A41F21112A3
:1013D000114208D1016A40F24442114203D101682E
:1013E00021F001010160012084F83D00002010BDC2
:1013F0000004004000080040000C004000000140D4
:10140000004001400044014000480140961B000894
:10141000D8B110B5044601688069C0B1324A914222
:101420000BD04B4A914208D0ED4A914205D0EB488F
:101430004FF4B97100F012FBA0694FEA3020042884
:1014400013D3E64840F273110DE00120704726489F
:1014500081420AD03E48814207D0E148814204D00F
:10146000DE4840F2771100F0F9FAA06840F48050AD
:10147000B0F5805F04D0D94840F2791100F0EEFA5F
:10148000E06940F40040B0F5004F04D0D3484FF479
:10149000BD7100F0E3FA94F83D0028B9002084F80B
:1014A0003C00204600F022F8242084F83D0020680B
:1014B000C16821F40051C160204600F0FFF82068A7
:1014C000016921F490410161416921F02A014161E2
:1014D000C16841F40051C16000202021206484F8DB
:1014E0003D1084F83E1010BD0044004010B586B099
:1014F000044601A81421FEF737FF2168D248814233
:1015000024D10021134A0091536900F5704043F043
:1015100010035361536903F010030093009B009183
:10152000136843F001031360126802F00102009295
:10153000072205920322CDE90312022102914FF402
:10154000C0610191009901A9FEF778FF06B010BDB6
:101550000010014030380240FEE7FEE7FEE770472A
:101560007047FFF74FBA0000B0B592B0002401A851
:1015700014210B94CDE90944FEF7F6FE21480094AE
:101580000168022541F080510160006800F0805040
:10159000009000981C480094016841F440410160AB
:1015A000006800F44040009004201190C82010957D
:1015B0000F9019200E904FF48000CDE90C500120BF
:1015C00008904FF48030079005200690009806A8F8
:1015D000FFF7F2FB18B1EFF3108072B6FEE74FF49D
:1015E0008050059404900F20CDE90254019001A889
:1015F0000321FFF7ADFA18B1EFF3108072B6FEE7E2
:1016000012B0B0BD4038024000700040024801688E
:1016100041F470010160704788ED00E070B5036827
:101620001F4AB0F1804F07D01E4CA04204D01E4C80
:10163000A04218BF90422ED14C6823F07003234380
:10164000B0F1804F13D0174CA04210D0164CA042DE
:101650000DD0164CA0420AD0904208D0144CA042A3
:1016600005D0144CA04202D0694CA04203D1CC68F2
:1016700023F4407323434E690C688D6823F0800384
:10168000334390420360C562846201D109691163EA
:101690000121416170BD054CA042CDD0D0E700BF13
:1016A000000001400004004000080040000C004021
:1016B000004001400048014000440140B0B50446EC
:1016C00040684549884204D3444840F6566100F0DA
:1016D000C5F9E06840F40050B0F5005F04D03F4821
:1016E00040F6576100F0BAF9206950B1B0F5806F4B
:1016F00007D0B0F5C06F04D0384840F6586100F00C
:10170000ADF9606918B14FF6F371084004D0334861
:1017100040F6596100F0A2F9206804F108030ECBED
:101720000569194325F440552A430261C26863697B
:1017300049F20C651943E369AA4319431143C16097
:101740004169A26921F4407111434161244940F487
:101750008060884202D1FFF7F1FA01E0FFF7E4FA76
:10176000E26919216368A0FB0101B2F5004F18D1AD
:101770005A00DB0FFEF780FD6421B0FBF1F26FF041
:10178000630302FB0300322303EBC000B0FBF1F163
:101790004FF4F87000EA410000EB021001F007017D
:1017A00015E09A009B0FFEF767FD6421B0FBF1F294
:1017B0006FF0630302FB0300322303EB0010B0FB66
:1017C000F1F101F0F00000EB021001F00F0108430D
:1017D00021688860B0BD00BFA137A000CF1B000802
:1017E00000140140FEE7000010B55748084C0021E6
:1017F000012263238161C0E90043C0E90212016153
:10180000FFF704FD18B1BDE81040FEF712BE10BD91
:101810000044014010B50B480B4C00210C224FF442
:10182000E133C0E90043C0E90211C0E90412C0E994
:101830000611FFF7EDFD18B1BDE81040FEF7F9BD48
:1018400010BD00BF0C0100200010014088B0032033
:101850000021CDE9001003AC0A4920464FF40052A4
:10186000012300F0D6F8002100F0CAF84FF47A7096
:1018700000F056F84FF47A7000F006F8204600F0B9
:10188000C4F8F7E70008024010B504462CB14FF445
:101890007A7000F003F8013CF8E710BDF0B50F498D
:1018A0000F4B6FF0630284B2BCB1B4F5617F28BF07
:1018B0004FF461740D6804FB0256002E05D40F68C6
:1018C000AF4208DAB742FADA05E01E440F68AF42C9
:1018D000FCDDB742FADC001BE5E7F0BD18E000E0F4
:1018E000A086010010B50B480B4B0C4C00214FF4A7
:1018F0008042C0E90043C0E90211C0E90421C0E907
:1019000006110162FEF724FF18B1BDE81040FEF792
:1019100090BD10BD70000020801A060000540040E9
:10192000B0B5094D04462868002141622846FFF7FA
:10193000E3FC2868416A89B2A142FBD90248BDE8AC
:10194000B040FFF721BD00BFC4000020FEB5014636
:101950000068294A02444FEAB222072A3DD8DFE84C
:1019600002F00F1A2530043C3C0400220192234A65
:10197000136843F080031360126802F080022AE0CB
:10198000002201921D4A136843F00103136012689C
:1019900002F001021FE000220192184A136843F08E
:1019A00002031360126802F0020214E000220192A6
:1019B000124A136843F004031360126802F0040231
:1019C00009E0002201920D4A136843F008031360F6
:1019D000126802F008020192019A002205928A8898
:1019E0000192D1E902230969CDE90223049101A9F9
:1019F000FEF724FD06B080BD0000FEBF3038024077
:101A00000A4681880068FEF787BE81880068FEF775
:101A100071BE10B50446039820610298C4E90230F3
:101A20002046A2802160FFF791FF20460021FFF7AA
:101A3000E7FF204610BD000010B5074C00F00F0373
:101A40002344044AB0F1FF3FC8BF8318080118704F
:101A500010BD00BF00E400E014ED00E0704780B569
:101A6000FEF7DAFFFFF780FDFFF73CFFFFF7BCFE54
:101A7000FFF7D0FEFFF7EAFE002080BDF1EE100A6E
:101A80004FF6FF71C0F2C03120EA010040F0407013
:101A9000E1EE100A704700000000000000000102A3
:101AA00003040607080900000000010203042E2EAB
:101AB0002F5F447269766572732F53544D333246EB
:101AC0003478785F48414C5F4472697665722F5371
:101AD00072632F73746D3332663478785F68616C2B
:101AE0005F636F727465782E63002E2E2F5F4472D1
:101AF00069766572732F53544D3332463478785F6C
:101B000048414C5F4472697665722F5372632F733C
:101B1000746D3332663478785F68616C5F677069C2
:101B20006F2E63002E2E2F5F447269766572732FBD
:101B300053544D3332463478785F48414C5F447299
:101B4000697665722F5372632F73746D3332663406
:101B500078785F68616C5F6932632E63002E2E2F88
:101B60005F447269766572732F53544D3332463435
:101B700078785F48414C5F4472697665722F537282
:101B8000632F73746D3332663478785F68616C5F8D
:101B90007263632E63002E2E2F5F44726976657226
:101BA000732F53544D3332463478785F48414C5F3D
:101BB0004472697665722F5372632F73746D33327A
:101BC000663478785F68616C5F74696D2E63002E8F
:101BD0002E2F5F447269766572732F53544D3332E2
:101BE000463478785F48414C5F4472697665722F5D
:101BF0005372632F73746D3332663478785F686123
:101C00006C5F756172742E6300000000301C000868
:101C10000000002010000000D4010008401C000853
:101C20001000002048210000F00100080000000022
:101C300001000000100000000024F400000000007B
:040000050800019955
:00000001FF
