:020000040800F2
:1000000000000220412C0008932C0008952C0008C9
:10001000972C0008992C00089B2C00080000000079
:100020000000000000000000000000009D2C0008FF
:100030009F2C000800000000A12C0008A32C000841
:10004000912C0008912C0008912C0008912C00089C
:10005000912C0008912C0008912C0008912C00088C
:10006000912C0008912C0008912C0008912C00087C
:10007000912C0008912C0008912C0008912C00086C
:10008000912C0008912C0008912C00080000000021
:10009000000000000000000000000000912C00089B
:1000A000912C0008912C0008912C0008912C00083C
:1000B000912C0008912C0008912C0008912C00082C
:1000C000912C0008912C0008912C0008912C00081C
:1000D000912C0008912C0008912C000800000000D1
:1000E000912C0008912C0008912C000800000000C1
:1000F000000000000000000000000000912C00083B
:1001000000000000912C0008912C0008912C0008A0
:1001100000000000000000000000000000000000DF
:10012000912C0008912C0008912C0008912C0008BB
:10013000912C0008000000000000000000000000FA
:10014000000000000000000000000000912C0008EA
:10015000912C0008912C0008912C0008912C00088B
:10016000912C0008912C0008000000000000000005
:10017000000000000000000000000000000000007F
:1001800000000000912C00080000000000000000AA
:08019000912C0008912C0008DD
:1001980010B5054C237833B9044B13B10448AFF3B9
:1001A80000800123237010BD3C04002000000000E3
:1001B800402F000808B5034B1BB103490348AFF3B0
:1001C800008008BD0000000040040020402F000807
:1001D80053B94AB9002908BF00281CBF4FF0FF31A6
:1001E8004FF0FF3001F0DEB8ADF1080C6DE904CE38
:1001F80000F006F8DDF804E0DDE9022304B07047FA
:100208002DE9F047089E0D4604468846002B4DD13F
:100218008A42944668D9B2FA82F252B101FA02F3DC
:10022800C2F1200120FA01F10CFA02FC41EA0308AC
:1002380094404FEA1C45210CB8FBF5FE1FFA8CF7D9
:1002480005FB1E8341EA03430EFB07F199420BD9D4
:100258001CEB03030EF1FF3080F01E81994240F23F
:100268001B81AEF1020E63445B1AA4B2B3FBF5F036
:1002780005FB103344EA034400FB07F7A7420AD9F9
:100288001CEB040400F1FF3380F00881A74240F220
:10029800058164440238E41B40EA0E4000211EB187
:1002A800D4400023C6E90043BDE8F0878B4208D953
:1002B800002E00F0EE800021C6E900050846BDE8E2
:1002C800F087B3FA83F100294AD1AB4202D38242C4
:1002D80000F2F980841A65EB030301209846002E8A
:1002E800E2D0C6E90048DFE702B9FFDEB2FA82F2DF
:1002F800002A40F09180A1EB0C054FEA1C471FFA39
:100308008CFE0121B5FBF7F307FB1350250C45EADA
:1003180000450EFB03F0A84208D91CEB050503F1C4
:10032800FF3802D2A84200F2CB8043462D1AA4B26D
:10033800B5FBF7F007FB105544EA05440EFB00FE39
:10034800A64508D91CEB040400F1FF3502D2A645E6
:1003580000F2BB802846A4EB0E0440EA03409EE767
:10036800C1F120078B4022FA07FC4CEA030C20FA63
:1003780007F405FA01F31C43FD404FEA1C4900FA53
:1003880001F3B5FBF9F8200C1FFA8CFE09FB185590
:1003980040EA054508FB0EF0A84202FA01F20BD923
:1003A8001CEB050508F1FF3A80F08880A84240F26E
:1003B8008580A8F1020865442D1AA4B2B5FBF9F0AE
:1003C80009FB105544EA054500FB0EFEAE4508D969
:1003D8001CEB050500F1FF346CD2AE456AD9023832
:1003E800654440EA0840A0FB0294A5EB0E05A5422F
:1003F800C846A64656D353D05EB1B3EB080265EBA8
:100408000E0505FA07F722FA01F3CD401F43C6E9A6
:1004180000750021BDE8F087C2F1200320FA03F13E
:100428000CFA02FC25FA03F395400D434FEA1C47EA
:100438001FFA8CFEB3FBF7F107FB11302B0C43EAD4
:10044800004301FB0EF0984204FA02F408D91CEBB1
:10045800030301F1FF382FD298422DD902396344A2
:100468001B1AADB2B3FBF7F007FB103345EA03459F
:1004780000FB0EF3AB4208D91CEB050500F1FF3871
:1004880016D2AB4214D902386544ED1A40EA01414C
:1004980038E73146304607E78646E5E61846FAE685
:1004A8004B45A9D2B9EB020864EB0C0E0138A3E75F
:1004B8004046EAE7204694E74146D1E7D0467BE745
:1004C800023B654432E7084609E76444023842E7DC
:1004D80003685A004CBF43F0004323F0004318441C
:1004E800704700BF2DE9F84329B34F1E044615464F
:1004F8003E464FF0000808EB060101EBD1714910A8
:1005080004EBC1094846FFF7E3FF0346C80008307B
:100518008F42204409D0AB4209D8FFF7D9FF0138F0
:10052800A8420AD201F10108E5E7AB4205D988459E
:1005380001D04E1EDFE74FF000094846BDE8F883BA
:10054800012807D0022807D0044B00280CBF184602
:10055800002070470248704702487047210C000885
:10056800250C0008290C000830B5234B83B004463D
:100578008D1E3BB301A92846AFF30080E8B101996D
:100588002A46FFF7AFFF0146B8B1FFF7A1FF4B6856
:10059800A064012B2CD0002B01F1040024DBFFF711
:1005A80097FF0023C4E913030368002B11DBFFF74F
:1005B8008FFF2061002003B030BD00230920236194
:1005C80003B030BD0D4B0E49C91AC9101846019128
:1005D800D6E7C3F30360FFF7B3FF0028206114BF19
:1005E8000020092003B030BD0123C4E91303DBE771
:1005F800002323610520DEE700000000A831000881
:10060800A83200080368DA0710B5044606D49B0729
:1006180000F1480009D500F05BFC2368590709D5AB
:100628001A070ED5DB0613D510BD00F049FC236868
:100638005907F5D404F1D00000F052FC23681A07DA
:10064800F0D404F5A87000F053FC2368DB06EBD463
:1006580004F5E870BDE8104000F08EBC0920704732
:100668000346006800B11844704700BF704700BFD8
:1006780070B504460E46316C2046FFF775FF0546F7
:1006880088B9326C62612369324621460120984755
:100698000828F0D0072806D12846316CFFF7E6FF76
:1006A800301D00F001FC02F00DFB00BF2DE9F04702
:1006B8000D1DD0F80C80D0F81890074614460FCDC1
:1006C800ADF5727D0DF10C0CACE80F000FCDACE868
:1006D8000F000FCDACE80F0095E80F0002AE4FF009
:1006E800000E8CE80F00C6F800E020E0336C7B6158
:1006F8004FF4F07231467AA800F056FE3B697AAAA8
:10070800394650469847889B73642146CDE900696D
:1007180005463B463A460120C0470446E0B94FF437
:10072800F0727AA9304600F03FFE082D1AD1316CDC
:100738003846FFF719FF09345FFA84FA054600289E
:10074800D4D0B36B73643A46CDE900693B464AF0AE
:1007580010010120C04700B1092528460DF5727D1A
:10076800BDE8F087072DF7D12046316CFFF77EFFF3
:1007780003A800F099FB00BF406C7047F0B5CB6B45
:100788000B6401F1040C0E460546BCE80F00F9B0F5
:1007980001AC0FC4BCE80F000FC4BCE80F000FC4C5
:1007A8009CE80F004FF0FF3784E80F00009706E041
:1007B8002B696A46294698470828044608D11099A3
:1007C8002846FFF7D1FE0028F2D0092079B0F0BD05
:1007D8006846FFF717FF062CF7D131462846FFF782
:1007E80047FF00BFC160D96B8261196400221946B6
:1007F8005CE700BF70B5C66843690B64AEB90369AE
:100808000A4604460D46014602209847072805D0A7
:1008180008280FD129462046FFF72AFF3046296CC1
:10082800FFF724FF281D00F03FFB0122FFF73EFFE2
:1008380002F048FA02F046FAC2681AB1CA6B0A64B2
:10084800002233E79AE700BF704700BF836801467C
:100858000BB1012018477047012912D009D873B984
:100868000F2A0CD800EB820218465368009A1360CE
:1008780070470339012994BF0120022070470220E4
:1008880070470846704700BF00B585B00A46002388
:1008980003A900911946FFF7DFFF039805B05DF83B
:1008A80004FB00BF012912D009D873B90F2A0CD84C
:1008B80000EB8200009A12684260184670470339BC
:1008C800012994BF01200220704702207047084682
:1008D800704700BF10B584B0002303AC03920094A6
:1008E8000A461946FFF7DEFF04B010BD70B5D36B9A
:1008F800136402F1040C05460C46BCE80F00ADF584
:100908000E7D0DF15C0EAEE80F00BCE80F00AEE8FE
:100918000F00BCE80F00AEE80F009CE80F004FF096
:10092800FF368EE80F00169610E0FFF7D3FF21463A
:1009380016A8A847034616AA6946082083B9049B47
:100948009847052806460CD0092809D026996846F4
:10095800FFF70AFE03466A460C2116A8002BE4D0CE
:10096800092616A8FFF74EFE30460DF50E7D70BD20
:100978002DE9F04FCC6C89B01E4654F8043B069420
:100988000D46174600F00308002E79D01A0C1B04F8
:1009980005938DF81D200223D2B204EB82048DF852
:1009A8001C302B6DB8F1020F08BFAC6B13F00103BC
:1009B8000CD005A9384600F079FB18B9082009B011
:1009C800BDE8F08F092009B0BDE8F08FD4F800A089
:1009D800BAF1000FEDD0019300F008030293022E44
:1009E8004AD0B4F800A0B4F802900434AB6C29F0F3
:1009F800010B0F2138469B44FFF746FF834539D842
:100A08002AF001039B44834594BF002001204FEA4C
:100A1800490303F002030AF0010A43EA0A03012B1F
:100A280049D0022B32D0002BCCD1B8F1000F02D024
:100A3800002840F0CD800434D4F800A0BAF1000FAB
:100A4800CDD105A9384600F031FB0028BAD1019B69
:100A5800002BB3D00F213846FFF716FF0E210246B0
:100A68003846FFF737FF38466A4A0F21FFF732FF4B
:100A78000720A8E70020CAE7D4F804900834B5E7AF
:100A88001B0205930323ADF81C308AE7236823F083
:100A9800004BB8F1000F45D128B1029A002A5CD06A
:100AA800BBF1000F74D0002B00DA04340BF1010BFA
:100AB80004EB8B04C0E7B8F1000F19D1B0B163683B
:100AC8002268991C4FEAD2723FF47CAF05F15801B5
:100AD8000133049100F09080201DFFF7C1FD04ABA5
:100AE80001462846AFF3008000285BD10834A3E70D
:100AF8000D213846D5F82090FFF7C6FE8145F5D17F
:100B0800AB6A9C42F2D12046FFF7E2FC0F21024675
:100B18003846FFF7DFFE38462A460021FFF7DAFE9F
:100B2800072050E70D213846D5F82090FFF7ACFE96
:100B3800814501D02368B6E7AB6A9C42FAD1042309
:100B48000022C5E90B23E318C5F828B06B632368B6
:100B5800002B59DB01230193A8E705F15803CDF8D1
:100B68000C8004F1040AB04691461E460EE0504639
:100B78000496FFF775FD0022014604AB284609F1EB
:100B880001090AF1040AAFF30080E0B9D945EED1B2
:100B98000D213846FFF778FE049BAC62C5E90803CF
:100BA800062010E781460D213846FFF76DFEB9F1A2
:100BB800020F286225D12B46049A43F82C2F6B622A
:100BC800AC620620FFE646462368DDF80C806AE73B
:100BD8002046FFF77DFC04340246AC6328461446E1
:100BE800AFF3008000283FF4EDAE384622460F21CF
:100BF800FFF770FE0720E6E60D213846FFF744FEB2
:100C08002862049B6B62DBE70BF1010004EB8000B8
:100C18007AE700BF000000000023A9E60123A7E649
:100C28000223A5E62DE9F0430646C3B015461C4647
:100C3800042900F2BF80DFE801F09E57BD2D0300B4
:100C4800002C40F0B780102A00F2B4800368D80660
:100C580000F1F98020AF384600F098F9B46B3946B6
:100C680000234FF0010C0CFA03F22A42204603F14C
:100C7800010303D050F8042B0A600446042B01F149
:100C88000401F0D13846B46300F076F9002043B08F
:100C9800BDE8F083032C40F08D8094B204EB12433E
:100CA800102B4FEA124500F2858003681F0700F1F8
:100CB800D28020AF384600F03DF9B26B07EBC50192
:100CC80054B10B46D01A01EBC401E4001D5843F897
:100CD800045B8B42FAD122443846B26300F008F92B
:100CE800002043B0BDE8F083012C4FEA124895B2CA
:100CF8005CD0052C5ED108EB0509B9F1200F59D855
:100D0800B8F10F0F79D9A946002D40F08A80B36B4E
:100D18006DB320AF4FF0000907EBC807043F03EBA2
:100D2800C50553F8041B47F8041FAB42F9D1B9F1C4
:100D3800000F0FD06F464146102938BF102107EB2E
:100D4800C101843903EBC90553F8040B41F8040FBA
:100D5800AB42F9D1012C00F08680B8F10F0FB563D2
:100D680047D9B9F1000F02D0684600F0B9F8002061
:100D780043B0BDE8F083ECB9806B23461FFA82FCD0
:100D88000124371D04FA03F212EA0C0F014604D0BD
:100D980051F8042B47F8232008460133102BF1D1D2
:100DA80015F40055E3D1B063284604E008EB0503C9
:100DB800102B03D9022043B0BDE8F083B8F10F0F20
:100DC800F8D83368DA0706D5304623F0030340F82D
:100DD800483B00F079F820AF384600F075F8B36B5F
:100DE800002D97D11D460435B563384600F068F8E4
:100DF800BDE720A800F06CF8B3E7B9F1100F40D9AF
:100E0800A9F110093368D90708D523F00103304642
:100E180043F0020340F8483B00F05EF8B9F1000FD8
:100E280032D033685A0720D4B8F10F0F25D96F464E
:100E38003846C8F1100500F057F8002DB36B7FF75E
:100E48007AAF20AF68E723F01003336006F5E87047
:100E580000F09CF8FEE623F00803036000F5A87094
:100E680000F068F825E720AFBDE7304623F004031B
:100E780040F8D03B00F038F8D6E720A800F02CF86E
:100E8800D5E74FF00009BDE7B8F10F0F3FF63FAFC8
:100E980020AF384600F020F8B36B002D7FF43AAF4E
:100EA800384600F015F862E700F1340191E838009F
:100EB8009C46A6464CF8045D90E8FF0FE54600BD49
:100EC80090EC210B704700BF80EC210B704700BFEE
:100ED80090EC200B704700BF80EC200B704700BFE0
:100EE800D0EC200B704700BFC0EC200B704700BF50
:100EF800F0EC0201F0EC0211F0EC0221F0EC02310E
:100F0800F0EC0241F0EC0251F0EC0261F0EC0271FD
:100F1800F0EC0281F0EC0291F0EC02A1F0EC02B1ED
:100F2800F0EC02C1F0EC02D1F0EC02E1F0EC02F1DD
:100F3800704700BFE0EC0201E0EC0211E0EC022196
:100F4800E0EC0231E0EC0241E0EC0251E0EC02613D
:100F5800E0EC0271E0EC0281E0EC0291E0EC02A12D
:100F6800E0EC02B1E0EC02C1E0EC02D1E0EC02E11D
:100F7800E0EC02F1704700BFB0FC0181B0FC0191C8
:100F8800B0FC01A1B0FC01B1704700BFA0FC018119
:100F9800A0FC0191A0FC01A1A0FC01B1704700BF19
:100FA800EC4600B52DE900502DE9FF1F4FF0000376
:100FB8002DE90C0001A9FFF7E1FBDDF840E012B0D4
:100FC800704700BFEC4600B52DE900502DE9FF1F22
:100FD8004FF000032DE90C0001A9FFF70BFCDDF829
:100FE80040E012B0704700BFEC4600B52DE9005054
:100FF8002DE9FF1F4FF000032DE90C0001A9FFF7B1
:101008001BFCDDF840E012B0704700BFEC4600B5AD
:101018002DE900502DE9FF1F4FF000032DE90C00CA
:1010280001ABFFF7DFFBDDF840E012B0704700BF0F
:10103800EC4600B52DE900502DE9FF1F4FF00003E5
:101048002DE90C0001AAFFF751FCDDF840E012B0D1
:10105800704700BF027A03467AB9427AA2B1416862
:10106800013A10B44272086803220C1D1A72020277
:101078005C60000E10BC1A6070470068013A1A7272
:1010880002021A60000E7047B020704700B585B0A4
:10109800002303AA009219460C22FFF7DDFB0398F0
:1010A80005B05DF804FB00BFF0E700BF2DE9F04391
:1010B800054685B00E464FF000083046FFF7CAFFD8
:1010C800B028044600F0BA80070620D500F0F003E7
:1010D800802B4DD0902B36D0A02B60D0B02B74D065
:1010E800C02B00F08B8000F0F803D02B0BD100F060
:1010F80007020132052342F4002201212846FFF7A6
:1011080091FD0028D9D0092005B0BDE8F0838300FF
:10111800DBB21F1D0DF10C0900231946CDF8009014
:101128000D222846FFF798FB039BCDF80090600638
:101138004CBFDF1BFF1800230D22194628460397D2
:10114800FFF7B0FBB9E700F00D030D2BDBD003AFC1
:10115800002300F00F02194600972846FFF77CFB92
:10116800002300970D2219462846FFF79BFBA4E7AA
:101178003046FFF76FFF24022043B0F5004FC2D07E
:1011880004010023A2B219462846FFF74BFD0028A8
:10119800B9D114F4004F18BF4FF001088DE7C243CE
:1011A80002F007034FF47F621A41010702F47F62DD
:1011B8004FF0000348BF42F4804219462846FFF723
:1011C80031FD00283FF479AF9DE7B1283BD0B22824
:1011D80000F09380B32841D000F0FC03B42B92D0E8
:1011E80000F007020132012342F400221946284682
:1011F800FFF718FD00283FF460AF84E7C6284AD0FF
:10120800C72854D000F0F803C02B63D0C82868D092
:10121800C9287FF478AF3046FFF71CFF020300F0BF
:101228000F0002F4702201300243012105232846F1
:10123800FFF7F8FC00283FF440AF64E7B8F1000F6F
:1012480018D0002060E73046FFF704FF0246002868
:101258003FF459AF10F0F003C8D054E73046FFF719
:10126800F9FE020300F00F03013302F470221A435F
:101278000123BBE703AC43460E22414600942846AF
:10128800FFF7EAFA009443460F2241462846FFF743
:1012980009FB404638E73046FFF7DCFE020300F062
:1012A8000F03013302F470221A4303239EE73046EA
:1012B800FFF7D0FE024600283FF425AF10F0F003F8
:1012C8007FF421AF04212846FFF7ACFC00283FF447
:1012D800F4AE18E700F00F020132032342F4202293
:1012E80084E73046FFF7B6FE00F0F00200F00F0387
:1012F8001032013343EA023297E700230DF10C095B
:101308000D221946CDF800902846FFF7A5FA304679
:10131800FFF7A0FE02064FF002040CD5039B00F075
:101328007F00A040184403903046FFF793FE030661
:1013380004F10704F2D4039BCDF8009000F07F027B
:10134800A24003F501731A440023039219460D22A3
:101358002846FFF7A7FAB0E610B5C26C536884B008
:101368004FF0030C08321C0208461B0E01A9019419
:1013780002928DF80CC08DF80D30FFF797FE04B07F
:1013880010BD00BF08B5FFF78FFE806C08BD00BF19
:1013980008B5FFF789FEC06CC379023300EB830000
:1013A80008BD00BF704700BF844641EA000313F040
:1013B80003036DD1403A41D351F8043B40F8043B54
:1013C80051F8043B40F8043B51F8043B40F8043B17
:1013D80051F8043B40F8043B51F8043B40F8043B07
:1013E80051F8043B40F8043B51F8043B40F8043BF7
:1013F80051F8043B40F8043B51F8043B40F8043BE7
:1014080051F8043B40F8043B51F8043B40F8043BD6
:1014180051F8043B40F8043B51F8043B40F8043BC6
:1014280051F8043B40F8043B51F8043B40F8043BB6
:1014380051F8043B40F8043B403ABDD2303211D356
:1014480051F8043B40F8043B51F8043B40F8043B96
:1014580051F8043B40F8043B51F8043B40F8043B86
:10146800103AEDD20C3205D351F8043B40F8043B56
:10147800043AF9D2043208D0D2071CBF11F8013B54
:1014880000F8013B01D30B8803806046704700BF1A
:10149800082A13D38B078DD010F003038AD0C3F129
:1014A8000403D21ADB071CBF11F8013B00F8013B0B
:1014B80080D331F8023B20F8023B7BE7043AD9D3CA
:1014C800013A11F8013B00F8013BF9D20B7803709F
:1014D8004B7843708B7883706046704700B58DB049
:1014E80003683A4A93421BD0394A934239D0394A61
:1014F800934243D0384A93424DD0384A934257D00A
:10150800374A934218D100230693364B1A6B42F0A0
:1015180080021A631B6B03F080030693069B0BE0A3
:10152800002301932F4B1A6B42F001021A631B6BC5
:1015380003F001030193019B002307930893099388
:101548000A930B938388079383680893C368099366
:1015580003690A9307A9006800F090FA0DB05DF8D6
:1015680004FB002302931F4B1A6B42F002021A631A
:101578001B6B03F002030293029BDDE70023039336
:10158800184B1A6B42F004021A631B6B03F0040336
:101598000393039BD0E700230493124B1A6B42F08A
:1015A80008021A631B6B03F008030493049BC3E748
:1015B800002305930B4B1A6B42F080021A631B6BD6
:1015C80003F080030593059BB6E700BF00000240C7
:1015D8000004024000080240000C024000100240D3
:1015E800001C02400038024010B586B0124B01932F
:1015F8004FF40053ADF808300123039300240494FA
:101608000323059301A8FFF769FF2246BDF80810D8
:10161800019800F085FB2246BDF80810019800F0FB
:101628007FFB4FF47A7000F09DF9BDF8081001981F
:1016380000F092FBF5E700BF0008024008B5094832
:10164800094B036063234360002383600122C26067
:101658000361836101F038F900B908BD00F03EF874
:10166800FBE700BFAC0400200044014008B50B486C
:101678000B4B03600B4B436000238360C3604FF444
:101688008042026143618361C361036200F07AFBB7
:1016980000B908BD00F022F8FBE700BF580400209D
:1016A80000540040801A060008B50A480A4B036037
:1016B8004FF4E133436000238360C36003610C226D
:1016C80042618361C36101F037FA00B908BD00F0D7
:1016D80005F8FBE7F40400200010014072B6FEE7AD
:1016E80000B595B03022002108A801F01DFB0023A9
:1016F8000393049305930693079301931F4A116C70
:1017080041F080511164126C02F080520192019AEA
:1017180002931B4B1A6842F440421A601B6803F498
:1017280040430293029B012308934FF480330993AB
:1017380002230E934FF480020F9219221092C822AE
:10174800119212930423139308A800F069FC88B936
:101758000F23039302230493002305934FF480522D
:1017680006920793032103A800F02AFF20B915B0B9
:101778005DF804FBFFF7B2FFFFF7B0FF0038024047
:101788000070004008B500F0C1F8FFF7A9FFFFF7A7
:101798006DFFFFF753FFFFF787FFFFF725FF0020D7
:1017A80008BD704782B0002100910B4B5A6C42F47F
:1017B80080425A645A6C02F480420092009A019165
:1017C8001A6C42F080521A641B6C03F08053019328
:1017D800019B02B0704700BF0038024030B589B0A5
:1017E8000023039304930593069307930268144B0D
:1017F8009A4201D009B030BD00250195114C236BE8
:1018080043F002032363236B03F002030193019B5C
:10181800C0230393122304930323069304230793FB
:1018280003A9094800F02AF90295236C43F4001330
:101838002364236C03F400130293029BDAE700BFCE
:1018480000540040003802400004024000B589B04E
:10185800002303930493059306930793026803F107
:10186800804303F588339A4202D009B05DF804FB3F
:101878000021019103F594335A6C42F010025A6426
:101888005A6C02F010020192019A02911A6B42F00E
:1018980001021A631B6B03F001030293029B4FF4CE
:1018A800C063039302230493032306930723079338
:1018B80003A9024800F0E2F8D7E700BF00000240A1
:1018C80010B504460E4B18784FF47A73B3FBF0F357
:1018D8000C4A1068B0FBF3F000F0BCF868B90F2CA4
:1018E80001D901200AE0002221464FF0FF3000F024
:1018F8006BF8054B1C60002000E0012010BD00BF04
:1019080000000020080000200400002008B50B4B50
:101918001A6842F400721A601A6842F480621A6007
:101928001A6842F480721A60032000F02FF80F2022
:10193800FFF7C6FFFFF736FF002008BD003C024056
:10194800034A1168034B1B780B441360704700BFB0
:101958003805002000000020014B1868704700BFC0
:101968003805002038B50446FFF7F6FF0546B4F100
:10197800FF3F02D0044B1B781C44FFF7EDFF401BD0
:10198800A042FAD338BD00BF0000002010B50446BD
:10199800C31E042B0FD80A4AD36823F4E0631B0440
:1019A8001B0C240204F4E064234343F0BF6343F4B4
:1019B8000033D36010BD92210248FFF7F2FEEAE738
:1019C80000ED00E0582F000870B505460C46164695
:1019D8000F2A25D80F2C28D81B4BDB68C3F302230A
:1019E800C3F10701042928BF04211A1D062A21D999
:1019F800033B4FF0FF3202FA01F124EA01049C4054
:101A080002FA03F326EA03063443002D14DB24010B
:101A1800E4B205F1604505F5614585F8004370BD00
:101A2800AA210A48FFF7BDFED4E7AB210748FFF714
:101A3800B8FED1E70023DCE705F00F052401E4B286
:101A4800034B5C55EBE700BF00ED00E0582F0008A2
:101A580014ED00E00138B0F1807F0BD24FF0E023A5
:101A68005861054AF02182F8231000209861072266
:101A78001A6170470120704700ED00E02DE9F04140
:101A880082B007460E46A14B984217D003F58063F3
:101A9800984213D003F5806398420FD003F5806312
:101AA80098420BD003F58063984207D003F5406352
:101AB800984203D0AC219648FFF773FE33689AB278
:101AC80012B11B0C1B041BB1AD219148FFF769FE35
:101AD8007368012B19D9112B17D0022B15D0122B93
:101AE80013D0B3F5881F10D0B3F5041F0DD0B3F58C
:101AF800441F0AD0B3F5901F07D0B3F5081F04D0D0
:101B0800B3F5481F01D0032B01D100248BE0AE218F
:101B18007F48FFF746FEF8E7F368032B13D8BA6847
:101B2800610003238B4022EA0302F3688B401343CE
:101B3800BB607A6822EA05027368C3F30015A54002
:101B480015437D6080E0C0217148FFF72AFEE6E773
:101B5800D1216F48FFF725FE7FE03369ABB1092B30
:101B680013D0012B11D0022B0FD0042B0DD0052B35
:101B78000BD0062B09D0072B07D0082B05D00A2B32
:101B880003D00C2B01D00F2B10D1E208083257F8E4
:101B9800220004F0070399000F238B4020EA03007A
:101BA80033698B40034347F8223066E0DE2158480A
:101BB800FFF7F7FDE9E7042300E000238B40034328
:101BC8000232544941F82230534B1A686FEA08032D
:101BD80022EA0801706810F4803F01D048EA020147
:101BE8004D4A1160526803EA0201706810F4003F20
:101BF80001D048EA0201484A5160926803EA0201AA
:101C0800706810F4801F01D048EA0201424A9160CE
:101C1800D2681340716811F4001F01D048EA02032A
:101C28003D4AD36001340F2C6CD80125A540336898
:101C380003EA050835EA0303F4D1736803F00303E4
:101C4800013B012B7FF668AF736803F00303032B96
:101C58000DD0B368022B3FF67BAFFA68610003230F
:101C68008B4022EA0302B3688B401343FB6073681E
:101C780003F00303022B3FF470AF3A6861000323BB
:101C88008B4022EA0302736803F003038B4013437B
:101C98003B60736813F4403FC4D0002301931F4B8B
:101CA8005A6C42F480425A645B6C03F4804301939B
:101CB800019BA208911C174B53F8210004F0030361
:101CC80099000F238B4020EA0300104B9F423FF4FA
:101CD80074AF03F580639F420ED003F580639F4283
:101CE8000CD003F580639F420AD003F580639F42BE
:101CF8003FF461AF072361E701235FE702235DE754
:101D080003235BE702B0BDE8F08100BF000002409A
:101D1800AC2F000800380140003C01400038024068
:101D280070B5054614460E4621B1012C08D86CB191
:101D3800AE6170BD40F29D110648FFF732FDF4E731
:101D48004FF4CF710348FFF72CFDF0E73604AE617E
:101D5800EFE700BFAC2F000838B505460C4641B187
:101D68006B6904EA030224EA030444EA0244AC610E
:101D780038BD4FF4DB710248FFF713FDF0E700BFF1
:101D8800AC2F0008002800F0368170B504460368BF
:101D98009B4A93420CD002F58062934208D002F528
:101DA8008062934204D040F2BF119648FFF7F9FCD5
:101DB8006368013B944A934271D8A36813B1B3F5A1
:101DC800804F72D1E36823F47F7323F00303002B61
:101DD80071D12369B3F5804F02D0B3F5404F70D16C
:101DE8006369012B73D8A36933F0FE0375D1E369E6
:101DF8000BB1402B77D1236A0BB1802B79D194F8A2
:101E08003D30002B7BD0242384F83D3022681368B2
:101E180023F0010313602268136843F4004313603E
:101E28002268136823F40043136000F0DDFC626845
:101E3800764B9A4269D8764B98428CBF002301238F
:101E4800002B40F0DA807349A1FB00318B0C256828
:101E58006A6822F03F0242EA91426A6021680A6A8F
:101E680022F03F026668694DAE4254D801331343ED
:101E78000B622168CA6922F44F4222F0FF026668A9
:101E8800624B9E4251D8431E7600B3FBF6F30133F2
:101E980040F6FC7003427ED0C3F30B037CE04FF4A2
:101EA800E0715848FFF77DFC87E740F2C1115548BB
:101EB800FFF777FC86E74FF4E1715248FFF771FCB2
:101EC80087E740F2C3114F48FFF76BFC88E74FF4F0
:101ED800E2714C48FFF765FC85E740F2C5114948B7
:101EE800FFF75FFC83E74FF4E3714648FFF759FCBF
:101EF80081E740F2C7114348FFF753FC7FE784F8B6
:101F08003C302046FFF76AFC7DE7434B98428CBF84
:101F18000023012394E74FF4967505FB03F33F4D27
:101F2800A5FB03539B090133A1E7A368C3B9451E69
:101F380006EB460CB5FBFCF50135C5F30B05B5FA08
:101F480085F56D09002D54D1C3B9013806EB460358
:101F5800B0FBF3F30133C3F30B0343F400431BE07B
:101F6800451E06EB860C0CEB8C0CB5FBFCF501351D
:101F7800C5F30B05B5FA85F56D09E3E7013806EBFE
:101F8800860303EB8303B0FBF3F30133C3F30B03C3
:101F980043F4404300E004231343CB6121680B68FA
:101FA80023F0C003E269206A024313430B602168EF
:101FB8008B6823F4034323F0FF032269E06802439C
:101FC80013438B602168CB6823F0FF036269A06923
:101FD80002431343CB602268136843F00103136084
:101FE80000202064202384F83D30206384F83E00DC
:101FF80070BD0123D0E7012070470120F8E700BF3A
:1020080000540040003000087F1A0600A086010036
:102018007F841E0083DE1B43FF083D00D34D621002
:10202800002800F05D8270B582B0044603680F2B6B
:1020380039D8236813F0010F4DD063682BB1B3F57D
:10204800803F02D0B3F5A02F32D1804B9B6803F0BC
:102058000C03042B36D07D4B9B6803F00C03082B34
:102068002BD06368B3F5803F5FD0B3F5A02F62D063
:10207800764B1A6822F480321A601A6822F4802299
:102088001A606368002B60D0FFF766FC05466F4B4B
:102098001B6813F4003F1ED1FFF75EFC401B642849
:1020A800F5D9032023E2E8216948FFF77AFBC0E766
:1020B800ED216748FFF775FBC7E7644B5B6813F4CE
:1020C800800FCED0614B1B6813F4003F03D06368C8
:1020D800002B00F00782236813F0020F66D0E36834
:1020E800012B41D823691F2B44D8584B9B6813F008
:1020F8000C0F4AD0554B9B6803F00C03082B3FD0BC
:10210800E368002B77D0534B01221A60FFF724FCB9
:1021180005464E4B1B6813F0020F63D1FFF71CFCFA
:10212800401B0228F5D90320E1E1484A136843F42B
:1021380080331360A5E7454B1A6842F480221A6081
:102148001A6842F480321A609BE7FFF705FC0546DF
:102158003E4B1B6813F4003FBDD0FFF7FDFB401B4F
:102168006428F5D90320C2E140F21F113848FFF76F
:1021780018FBB7E74FF490713548FFF712FBB4E747
:10218800324B5B6813F4800FBAD1304B1B6813F0E5
:10219800020F03D0E368012B40F0A6812B4A136895
:1021A80023F0F803216943EAC1031360236813F09D
:1021B800080F51D06369012B2FD863699BB3254B56
:1021C8000122C3F8802EFFF7C7FB05461F4B5B6F44
:1021D80013F0020F40D1FFF7BFFB401B0228F5D9CF
:1021E800032084E1194A136823F0F803216943EABC
:1021F800C1031360DAE7174B00221A60FFF7ACFB44
:102208000546124B1B6813F0020FCFD0FFF7A4FB53
:10221800401B0228F5D9032069E14FF4B0710C483E
:10222800FFF7BFFAC9E70B4B0022C3F8802EFFF770
:1022380093FB0546054B5B6F13F0020F0CD0FFF7BD
:102248008BFB401B0228F5D9032050E100380240DF
:102258005030000800004742236813F0040F7CD078
:10226800A368012B01D9052B38D1A44B1B6C13F0A3
:10227800805F39D100230193A04B1A6C42F0805241
:102288001A641B6C03F080530193019B01259C4B3E
:102298001B6813F4807F29D0A368012B3AD0052B43
:1022A8003ED0964B1A6F22F001021A671A6F22F07D
:1022B80004021A67A368002B3CD0FFF74DFB0646C3
:1022C8008E4B1B6F13F0020F45D1FFF745FB801BA8
:1022D80041F288339842F3D9032008E14FF4C671DC
:1022E8008848FFF75EFAC0E70025D0E7844A1368FC
:1022F80043F480731360FFF72FFB0646804B1B687F
:1023080013F4807FC8D1FFF727FB801B0228F5D97B
:102318000320ECE0794A136F43F001031367C9E720
:10232800764B1A6F42F004021A671A6F42F00102E4
:102338001A67BFE7FFF710FB0646704B1B6F13F0D9
:10234800020F08D0FFF708FB801B41F28833984240
:10235800F3D90320CBE0002D3BD1A369022B3ED853
:10236800A369002B00F0C280644A926802F00C0254
:10237800082A00F09080022B79D1E36913B1B3F5F4
:10238800800F32D1236A3F2B35D8636A323BB3F5CD
:10239800BF7F36D8A36A022B05D0042B03D0062BA7
:1023A80001D0082B33D1E36A023B0D2B35D8564BAD
:1023B80000221A66FFF7D0FA0546504B1B6813F047
:1023C800007F30D0FFF7C8FA401B0228F5D9032058
:1023D8008DE04A4A136C23F080531364BDE740F242
:1023E800CF114848FFF7DDF9BAE74FF4EC714548DB
:1023F800FFF7D7F9C6E740F2D9114248FFF7D1F9FC
:10240800C3E74FF4ED713F48FFF7CBF9C2E740F25D
:10241800DB113C48FFF7C5F9C5E74FF4EE713948C1
:10242800FFF7BFF9C3E7E369226A1343626A43EA25
:102438008213A26A5208013A43EA0243E26A43EA73
:1024480002632E4A5360304B01221A66FFF784FA62
:1024580004462A4B1B6813F0007F06D1FFF77CFA6D
:10246800001B0228F5D9032041E000203FE0264B5D
:1024780000221A66FFF770FA0446204B1B6813F017
:10248800007F06D0FFF768FA001B0228F5D9032061
:102498002DE000202BE0012B2BD0184B5B6803F4B8
:1024A8008001E269914226D103F03F02216A8A4203
:1024B8002CD1616A47F6C0721A40B2EB811F27D14E
:1024C80003F44031A26A5208013AB1EB024F21D11C
:1024D80003F07063E26AB3EB026F1DD1002006E0DF
:1024E80001207047012002E0012000E0002002B036
:1024F80070BD0120FBE70120F9E700BF003802406A
:102508000070004050300008000047420120EEE70C
:102518000120ECE70120EAE70120E8E708B5254BB0
:102528009B6803F00C03042B3FD0082B3FD1214BB1
:102538005A6802F03F025B6813F4800F12D01D4BFB
:102548005968C1F388111C480023A1FB0001FDF75D
:102558003FFE184B5B68C3F3014301335B00B0FBDC
:10256800F3F025E0134B5968C1F3881C4FEA4C116E
:10257800B1EB0C006EEB0E0E4FEA8E1343EA90633C
:102588008101091A63EB0E03DB0043EA5173C900AA
:1025980011EB0C0C43F10003990200234FEA8C2045
:1025A80041EA9C51FDF714FED3E7034800E00348D5
:1025B80008BD00BF0038024040787D010024F400C7
:1025C800002800F0F78070B50D4604460368013B0B
:1025D8000E2B6BD8072D6FD87A4B1B6803F00703B7
:1025E800AB4208D2EBB2774A1370136803F00703C3
:1025F800AB4240F0E180236813F0020F29D013F0BA
:10260800040F04D0704A936843F4E053936023683E
:1026180013F0080F04D06C4A936843F46043936046
:10262800A3687BB1802B0DD0902B0BD0A02B09D0A9
:10263800B02B07D0C02B05D0D02B03D0E02B01D076
:10264800F02B3FD1604A936823F0F003A1680B4355
:102658009360236813F0010F4ED06368032B37D8BB
:102668006368012B3AD09A1E012A3ED9564A12684D
:1026780012F0020F00F0A28053498A6822F0030288
:1026880013438B60FFF768F906464F4B9B6803F0CE
:102698000C036268B3EB820F2ED0FFF75DF9801B45
:1026A80041F288339842F0D9032076E04FF417714D
:1026B8004648FFF776F88DE740F25D214348FFF77B
:1026C80070F889E74FF420714048FFF76AF8B9E7D6
:1026D80040F287213D48FFF764F8C1E73A4A12689B
:1026E80012F4003FC8D1012057E0374A126812F0AF
:1026F800007FC1D1012050E0324B1B6803F0070373
:10270800AB4207D9EAB22F4B1A701B6803F00703D4
:10271800AB4255D1236813F0040F14D0E3685BB1C2
:10272800B3F5805F08D0B3F5A05F05D0B3F5C05FFF
:1027380002D0B3F5E05F31D1234A936823F4E05324
:10274800E1680B439360236813F0080F15D02369E1
:102758005BB1B3F5805F08D0B3F5A05F05D0B3F5E2
:10276800C05F02D0B3F5E05F1ED1174A936823F427
:102778006043216943EAC1039360FFF7CFFE124B20
:102788009B68C3F30313124AD35CD840114B1860FB
:10279800114B1868FFF794F8002070BD40F2C5216E
:1027A8000A48FEF7FEFFC7E74FF433710748FEF704
:1027B800F8FFDAE7012070470120EEE70120ECE797
:1027C8000120EAE7003C024000380240503000088F
:1027D800443100080800002004000020014B18685C
:1027E800704700BF0800002008B5FFF7F7FF044B4B
:1027F8009B68C3F38223034AD35CD84008BD00BF5B
:10280800003802405431000808B5FFF7E7FF044BD1
:102818009B68C3F34233034AD35CD84008BD00BF6A
:102828000038024054310008704700000368254A08
:1028380090420ED0B0F1804F0BD0A2F57C4290426E
:1028480007D002F58062904203D002F58062904280
:1028580003D123F070034A6813431A4A90421AD0EE
:10286800B0F1804F17D0A2F57C42904213D002F508
:10287800806290420FD002F5806290420BD002F540
:102888009A32904207D002F58062904203D002F556
:102898008062904203D123F44073CA68134323F043
:1028A80080034A69134303608B68C3620B688362C1
:1028B800044B984202D00123436170470B690363BC
:1028C800F9E700BF00000140002875D010B50446A4
:1028D80003683A4A93421FD0B3F1804F1CD0A2F547
:1028E8007C42934218D002F58062934214D002F5DC
:1028F8008062934210D002F59A3293420CD002F5CE
:102908008062934208D002F58062934204D040F27C
:1029180013112B48FEF745FFA3683BB1102B05D0D8
:10292800202B03D0402B01D0602B2DD123692BB154
:10293800B3F5807F02D0B3F5007F2BD1A3690BB12B
:10294800802B2DD194F83D3083B3022384F83D3099
:10295800214651F8040BFFF769FF012384F846303C
:1029680084F83E3084F83F3084F8403084F84130B1
:1029780084F8423084F8433084F8443084F8453091
:1029880084F83D30002010BD4FF48A710C48FEF7E2
:1029980008FFCBE740F215110948FEF702FFCDE723
:1029A8004FF48B710648FEF7FCFECBE784F83C3009
:1029B8002046FFF739FFC8E70120704700000140B3
:1029C800A030000838B504464268574B9A423FD8B1
:1029D800E36813B1B3F5005F40D123692BB1B3F5B8
:1029E800806F02D0B3F5C06F3ED163694FF6F372C2
:1029F800134200D123B940F659614C48FEF7D1FE85
:102A08002268136923F44053E1680B431361A368F8
:102A18002269134362691343E2691A432168CB6848
:102A280023F4164323F00C031343CB602268536945
:102A380023F44073A1690B43536123683C4A9342D2
:102A480018D002F58062934214D0FFF7CDFE13E050
:102A580040F656613548FEF7A4FEB9E740F65761DF
:102A68003248FEF79EFEB8E740F658612F48FEF759
:102A780098FEBAE7FFF7C8FEE369B3F5004F29D01F
:102A88000021031849411B1841F10001C90041EA1E
:102A98005371DB00181863684FEA83024FEA937397
:102AA80041F10001FDF794FB224DA5FB00325109CD
:102AB800642303FB11031B013233A5FB03235B09CA
:102AC80003F0F00202EB011203F00F032168134434
:102AD8008B6038BD0023021843EB0301121841F143
:102AE8000001C90041EA5271D200101841F10001F9
:102AF800626892185B41FDF76BFB0E4DA5FB003237
:102B08005109642303FB1103DB003233A5FB0323C4
:102B18005B095A0002F4F87202EB011203F0070392
:102B2800216813448B60D4E7A037A000F030000878
:102B3800001001401F85EB51002877D010B50446DE
:102B480083690BB303683A4A93420CD0A2F54C420E
:102B5800934208D002F55042934204D04FF4B97121
:102B68003448FEF71EFEA369FBB1B3F5807F1CD085
:102B7800B3F5007F19D0B3F5407F16D040F273113A
:102B88002C48FEF70EFE10E00368294A93420CD049
:102B9800A2F54C42934208D002F55042934204D029
:102BA80040F277112348FEF7FCFDA36813B1B3F593
:102BB800805F29D1E36913B1B3F5004F2AD194F8A6
:102BC8003D306BB3242384F83D302268D36823F466
:102BD8000053D3602046FFF7F5FE2268136923F4FB
:102BE800904313612268536923F02A0353612268D2
:102BF800D36843F40053D36000202064202384F872
:102C08003D3084F83E3010BD40F279110948FEF796
:102C1800C8FDCFE74FF4BD710648FEF7C2FDCEE709
:102C280084F83C302046FEF711FECBE701207047C0
:102C380000100140F0300008DFF834D00D480E498C
:102C48000E4A002302E0D458C4500433C4188C42FE
:102C5800F9D30B4A0B4C002301E013600432A24263
:102C6800FBD300F02EF800F03BF8FEF78BFD704721
:102C780000000220000000203C040020B4320008BC
:102C88003C04002044050020FEE7FEE7FEE7FEE7DF
:102C9800FEE7FEE770477047704708B5FEF750FE3D
:102CA80008BD0120704708B500F014F8162303602A
:102CB8004FF0FF3008BD08B54FF0FF31FFF7F3FFC5
:102CC800FEE7704708B5062000F080F80120FFF7FE
:102CD800F2FF00BF014B1868704700BF0C000020CE
:102CE80070B50D4E0D4D761BB61006D0002455F864
:102CF800043B01349847A642F9D1094E094D761B89
:102D080000F01AF9B61006D0002455F8043B013437
:102D18009847A642F9D170BDA8320008A832000829
:102D2800B0320008A8320008830730B548D0541ED6
:102D3800002A3FD0CAB2034601E0013C3AD303F867
:102D4800012B9D07F9D1032C2DD9CDB245EA0525D4
:102D58000F2C45EA054536D9A4F1100222F00F0CD4
:102D680003F1200EE6444FEA121C03F1100242E977
:102D7800045542E9025510327245F8D10CF10102AE
:102D880014F00C0F03EB021204F00F0C13D0ACF18B
:102D9800040323F003030433134442F8045B93420F
:102DA800FBD10CF003042CB1CAB21C4403F8012B6C
:102DB8009C42FBD130BD64461346002CF4D1F9E7A0
:102DC80003461446BFE71A46A446E0E738B5154B54
:102DD8001F281D6820D8D5F8DC22044662B152F8B5
:102DE80020304BB1012B15D0591C0FD0002542F8CB
:102DF80020509847284638BD284600F02BF8224630
:102E080001462846BDE8384000F00EB816232B606E
:102E1800012038BD002038BD16232B604FF0FF304D
:102E280038BD00BF0C00002070B50C46084D0346A5
:102E38000026204611461C462E60FFF734FF431C2F
:102E480000D070BD2B68002BFBD0236070BD00BF85
:102E580040050020FFF725BF024B13B1024800F0E0
:102E680005B8704700000000812E000800230146C5
:102E78001A46184600F01AB838B5084B084D5B1BBF
:102E88009C1007D0043B1D44013C55F80439984771
:102E9800002CF9D1BDE8384000F054B8B43200082D
:102EA800B0320008704700BF704700BF2DE9F047F7
:102EB800DFF87CA00646DAF8000098460F469146EF
:102EC800FFF7F0FF1B4B1B68D3F8484124B3656834
:102ED8001F2D26DC5EB96B1C0235DAF80000636032
:102EE80044F82570FFF7E0FF0020BDE8F08704EB09
:102EF80085010123C1F88890D4F88821AB401A4392
:102F0800022EC4F88821C1F80881E4D1D4F88C21B4
:102F18001343C4F88C31DEE703F5A674C3F84841BF
:102F2800D5E7DAF80000FFF7BFFF4FF0FF30DCE726
:102F3800380400205C310008F8B500BFF8BC08BCB4
:102F48009E467047F8B500BFF8BC08BC9E4670475F
:102F5800473A5C436F64655C53544D333243707039
:102F68005C463431315F4370705C5F4472697665EA
:102F780072735C53544D3332463478785F48414C11
:102F88005F4472697665725C5372635C73746D3307
:102F980032663478785F68616C5F636F72746578E5
:102FA8002E630000473A5C436F64655C53544D33AD
:102FB800324370705C463431315F4370705C5F44FB
:102FC8007269766572735C53544D3332463478783F
:102FD8005F48414C5F4472697665725C5372635C0A
:102FE80073746D3332663478785F68616C5F6770CC
:102FF800696F2E6300000000473A5C436F64655CAC
:1030080053544D33324370705C463431315F4370F2
:10301800705C5F447269766572735C53544D3332E9
:10302800463478785F48414C5F4472697665725CD3
:103038005372635C73746D3332663478785F686199
:103048006C5F6932632E6300473A5C436F64655C6A
:1030580053544D33324370705C463431315F4370A2
:10306800705C5F447269766572735C53544D333299
:10307800463478785F48414C5F4472697665725C83
:103088005372635C73746D3332663478785F686149
:103098006C5F7263632E6300473A5C436F64655CE0
:1030A80053544D33324370705C463431315F437052
:1030B800705C5F447269766572735C53544D333249
:1030C800463478785F48414C5F4472697665725C33
:1030D8005372635C73746D3332663478785F6861F9
:1030E8006C5F74696D2E6300473A5C436F64655C7E
:1030F80053544D33324370705C463431315F437002
:10310800705C5F447269766572735C53544D3332F8
:10311800463478785F48414C5F4472697665725CE2
:103128005372635C73746D3332663478785F6861A8
:103138006C5F756172742E6300000000000000006F
:10314800000000000102030406070809000000004F
:08315800010203041000002035
:1031600008B10181B0B000840000000008B1018105
:10317000B0B000840000000008B10181B0B000844C
:103180000000000008B10181B0B000840000000020
:1031900008B10181B0B000840000000008B10181D5
:0831A000B0B000840000000043
:1031A80060D0FF7F01000000C0D3FF7FB0A902807C
:1031B80054D4FF7FB0B0A880A4D4FF7F01000000E2
:1031C800B0D4FF7FB0B0AA80E4D4FF7FAE71B280E4
:1031D800A8D5FF7F01000000A4D5FF7FAB3F388052
:1031E80004D6FF7F010000000CD6FF7FB0B0AA8094
:1031F80048D6FF7F01000000F4D6FF7FAA0DB280F9
:1032080070D7FF7FB0AF088010DAFF7F01000000A1
:1032180014DAFF7FAD3F028090DCFF7F01000000E1
:103228006CDEFF7F0084048080DEFF7F01000000E9
:103238007CDEFF7FB0AD048020E1FF7FB0A8038073
:1032480044E1FF7F44FFFF7F48E1FF7F48FFFF7FA6
:1032580054E1FF7F0100000084E2FF7F00840C80BE
:1032680088E3FF7FB0A80580D4E3FF7FECFEFF7FF3
:10327800FCE3FF7FF0FEFF7F30E4FF7FF4FEFF7F7B
:103288005CE4FF7F0100000058E4FF7F00841480A5
:10329800F4E4FF7FE8FEFF7F0AE5FF7F01000000FE
:0832A800612E0008BD010008C1
:0432B0009901000878
:1032B40001000000100000000024F40010000020B1
:1032C40000000000FC02002064030020CC03002066
:1032D40000000000000000000000000000000000EA
:1032E40000000000000000000000000000000000DA
:1032F40000000000000000000000000000000000CA
:1033040000000000000000000000000000000000B9
:1033140000000000000000000000000000000000A9
:103324000000000000000000000000000000000099
:103334000000000000000000000000000000000089
:103344000000000000000000000000000000000079
:103354000000000000000000000000000000000069
:103364000000000000000000010000000000000058
:103374000E33CDAB34126DE6ECDE05000B0000001D
:103384000000000000000000000000000000000039
:103394000000000000000000000000000000000029
:1033A4000000000000000000000000000000000019
:1033B4000000000000000000000000000000000009
:0C36E40000000000000000003C05002079
:0400000508002C4182
:00000001FF
