:020000040800F2
:1000000000000220C94E00081B4F00081D4F0008C9
:100010001F4F0008214F0008234F00080000000078
:10002000000000000000000000000000254F000854
:10003000274F000800000000294F00082B4F000840
:10004000194F0008194F0008194F0008194F0008F0
:10005000194F0008194F0008194F0008194F0008E0
:10006000194F0008194F0008194F0008194F0008D0
:10007000194F0008194F0008194F0008194F0008C0
:10008000194F0008194F0008194F00080000000020
:10009000000000000000000000000000194F0008F0
:1000A000194F0008194F0008194F0008194F000890
:1000B000194F0008194F0008194F0008194F000880
:1000C000194F0008194F0008194F0008194F000870
:1000D000194F0008194F0008194F000800000000D0
:1000E000194F0008194F0008194F000800000000C0
:1000F000000000000000000000000000194F000890
:1001000000000000194F0008194F0008194F00089F
:1001100000000000000000000000000000000000DF
:10012000194F0008194F0008194F0008194F00080F
:10013000194F00080000000000000000000000004F
:10014000000000000000000000000000194F00083F
:10015000194F0008194F0008194F0008194F0008DF
:10016000194F0008194F00080000000000000000AF
:10017000000000000000000000000000000000007F
:1001800000000000194F00080000000000000000FF
:08019000194F0008194F000887
:1001C00010B5054C237833B9044B13B10448AFF391
:1001D00000800123237010BDB8090020000000003A
:1001E000B4AE000808B5034B1BB103490348AFF395
:1001F000008008BD00000000BC090020B4AE00086B
:1002000053B94AB9002908BF00281CBF4FF0FF317D
:100210004FF0FF3001F0DEB8ADF1080C6DE904CE0F
:1002200000F006F8DDF804E0DDE9022304B07047D1
:100230002DE9F047089E0D4604468846002B4DD117
:100240008A42944668D9B2FA82F252B101FA02F3B4
:10025000C2F1200120FA01F10CFA02FC41EA030884
:1002600094404FEA1C45210CB8FBF5FE1FFA8CF7B1
:1002700005FB1E8341EA03430EFB07F199420BD9AC
:100280001CEB03030EF1FF3080F01E81994240F217
:100290001B81AEF1020E63445B1AA4B2B3FBF5F00E
:1002A00005FB103344EA034400FB07F7A7420AD9D1
:1002B0001CEB040400F1FF3380F00881A74240F2F8
:1002C000058164440238E41B40EA0E4000211EB15F
:1002D000D4400023C6E90043BDE8F0878B4208D92B
:1002E000002E00F0EE800021C6E900050846BDE8BA
:1002F000F087B3FA83F100294AD1AB4202D382429C
:1003000000F2F980841A65EB030301209846002E61
:10031000E2D0C6E90048DFE702B9FFDEB2FA82F2B6
:10032000002A40F09180A1EB0C054FEA1C471FFA10
:100330008CFE0121B5FBF7F307FB1350250C45EAB2
:1003400000450EFB03F0A84208D91CEB050503F19C
:10035000FF3802D2A84200F2CB8043462D1AA4B245
:10036000B5FBF7F007FB105544EA05440EFB00FE11
:10037000A64508D91CEB040400F1FF3502D2A645BE
:1003800000F2BB802846A4EB0E0440EA03409EE73F
:10039000C1F120078B4022FA07FC4CEA030C20FA3B
:1003A00007F405FA01F31C43FD404FEA1C4900FA2B
:1003B00001F3B5FBF9F8200C1FFA8CFE09FB185568
:1003C00040EA054508FB0EF0A84202FA01F20BD9FB
:1003D0001CEB050508F1FF3A80F08880A84240F246
:1003E0008580A8F1020865442D1AA4B2B5FBF9F086
:1003F00009FB105544EA054500FB0EFEAE4508D941
:100400001CEB050500F1FF346CD2AE456AD9023809
:10041000654440EA0840A0FB0294A5EB0E05A54206
:10042000C846A64656D353D05EB1B3EB080265EB7F
:100430000E0505FA07F722FA01F3CD401F43C6E97E
:1004400000750021BDE8F087C2F1200320FA03F116
:100450000CFA02FC25FA03F395400D434FEA1C47C2
:100460001FFA8CFEB3FBF7F107FB11302B0C43EAAC
:10047000004301FB0EF0984204FA02F408D91CEB89
:10048000030301F1FF382FD298422DD9023963447A
:100490001B1AADB2B3FBF7F007FB103345EA034577
:1004A00000FB0EF3AB4208D91CEB050500F1FF3849
:1004B00016D2AB4214D902386544ED1A40EA014124
:1004C00038E73146304607E78646E5E61846FAE65D
:1004D0004B45A9D2B9EB020864EB0C0E0138A3E737
:1004E0004046EAE7204694E74146D1E7D0467BE71D
:1004F000023B654432E7084609E76444023842E7B4
:1005000003685A004CBF43F0004323F000431844F3
:10051000704700BF2DE9F84329B34F1E0446154626
:100520003E464FF0000808EB060101EBD17149107F
:1005300004EBC1094846FFF7E3FF0346C800083053
:100540008F42204409D0AB4209D8FFF7D9FF0138C8
:10055000A8420AD201F10108E5E7AB4205D9884576
:1005600001D04E1EDFE74FF000094846BDE8F88392
:10057000012807D0022807D0044B00280CBF1846DA
:10058000002070470248704702487047490C000835
:100590004D0C0008510C000830B5234B83B00446C5
:1005A0008D1E3BB301A92846AFF30080E8B1019945
:1005B0002A46FFF7AFFF0146B8B1FFF7A1FF4B682E
:1005C000A064012B2CD0002B01F1040024DBFFF7E9
:1005D00097FF0023C4E913030368002B11DBFFF727
:1005E0008FFF2061002003B030BD0023092023616C
:1005F00003B030BD0D4B0E49C91AC9101846019100
:10060000D6E7C3F30360FFF7B3FF0028206114BFF0
:100610000020092003B030BD0123C4E91303DBE748
:10062000002323610520DEE700000000ECC600087F
:1006300014C800080368DA0710B5044606D49B07FF
:1006400000F1480009D500F05BFC2368590709D583
:100650001A070ED5DB0613D510BD00F049FC236840
:100660005907F5D404F1D00000F052FC23681A07B2
:10067000F0D404F5A87000F053FC2368DB06EBD43B
:1006800004F5E870BDE8104000F08EBC092070470A
:100690000346006800B11844704700BF704700BFB0
:1006A00070B504460E46316C2046FFF775FF0546CF
:1006B00088B9326C6261236932462146012098472D
:1006C0000828F0D0072806D12846316CFFF7E6FF4E
:1006D000301D00F001FC04F087FC00BF2DE9F0475D
:1006E0000D1DD0F80C80D0F81890074614460FCD99
:1006F000ADF5727D0DF10C0CACE80F000FCDACE840
:100700000F000FCDACE80F0095E80F0002AE4FF0E0
:10071000000E8CE80F00C6F800E020E0336C7B612F
:100720004FF4F07231467AA800F056FE3B697AAA7F
:10073000394650469847889B73642146CDE9006945
:1007400005463B463A460120C0470446E0B94FF40F
:10075000F0727AA9304600F03FFE082D1AD1316CB4
:100760003846FFF719FF09345FFA84FA0546002876
:10077000D4D0B36B73643A46CDE900693B464AF086
:1007800010010120C04700B1092528460DF5727DF2
:10079000BDE8F087072DF7D12046316CFFF77EFFCB
:1007A00003A800F099FB00BF406C7047F0B5CB6B1D
:1007B0000B6401F1040C0E460546BCE80F00F9B0CD
:1007C00001AC0FC4BCE80F000FC4BCE80F000FC49D
:1007D0009CE80F004FF0FF3784E80F00009706E019
:1007E0002B696A46294698470828044608D110997B
:1007F0002846FFF7D1FE0028F2D0092079B0F0BDDD
:100800006846FFF717FF062CF7D131462846FFF759
:1008100047FF00BFC160D96B82611964002219468D
:100820005CE700BF70B5C66843690B64AEB9036985
:100830000A4604460D46014602209847072805D07F
:1008400008280FD129462046FFF72AFF3046296C99
:10085000FFF724FF281D00F03FFB0122FFF73EFFBA
:1008600004F0C2FB04F0C0FBC2681AB1CA6B0A6490
:10087000002233E79AE700BF704700BF8368014654
:100880000BB1012018477047012912D009D873B95C
:100890000F2A0CD800EB820218465368009A1360A6
:1008A00070470339012994BF0120022070470220BC
:1008B00070470846704700BF00B585B00A46002360
:1008C00003A900911946FFF7DFFF039805B05DF813
:1008D00004FB00BF012912D009D873B90F2A0CD824
:1008E00000EB8200009A1268426018467047033994
:1008F000012994BF0120022070470220704708465A
:10090000704700BF10B584B0002303AC039200947D
:100910000A461946FFF7DEFF04B010BD70B5D36B71
:10092000136402F1040C05460C46BCE80F00ADF55B
:100930000E7D0DF15C0EAEE80F00BCE80F00AEE8D6
:100940000F00BCE80F00AEE80F009CE80F004FF06E
:10095000FF368EE80F00169610E0FFF7D3FF214612
:1009600016A8A847034616AA6946082083B9049B1F
:100970009847052806460CD0092809D026996846CC
:10098000FFF70AFE03466A460C2116A8002BE4D0A6
:10099000092616A8FFF74EFE30460DF50E7D70BDF8
:1009A0002DE9F04FCC6C89B01E4654F8043B0694F8
:1009B0000D46174600F00308002E79D01A0C1B04D0
:1009C00005938DF81D200223D2B204EB82048DF82A
:1009D0001C302B6DB8F1020F08BFAC6B13F0010394
:1009E0000CD005A9384600F079FB18B9082009B0E9
:1009F000BDE8F08F092009B0BDE8F08FD4F800A061
:100A0000BAF1000FEDD0019300F008030293022E1B
:100A10004AD0B4F800A0B4F802900434AB6C29F0CA
:100A2000010B0F2138469B44FFF746FF834539D819
:100A30002AF001039B44834594BF002001204FEA24
:100A4000490303F002030AF0010A43EA0A03012BF7
:100A500049D0022B32D0002BCCD1B8F1000F02D0FC
:100A6000002840F0CD800434D4F800A0BAF1000F83
:100A7000CDD105A9384600F031FB0028BAD1019B41
:100A8000002BB3D00F213846FFF716FF0E21024688
:100A90003846FFF737FF38466A4A0F21FFF732FF23
:100AA0000720A8E70020CAE7D4F804900834B5E787
:100AB0001B0205930323ADF81C308AE7236823F05B
:100AC000004BB8F1000F45D128B1029A002A5CD042
:100AD000BBF1000F74D0002B00DA04340BF1010BD2
:100AE00004EB8B04C0E7B8F1000F19D1B0B1636813
:100AF0002268991C4FEAD2723FF47CAF05F158018D
:100B00000133049100F09080201DFFF7C1FD04AB7C
:100B100001462846AFF3008000285BD10834A3E7E4
:100B20000D213846D5F82090FFF7C6FE8145F5D156
:100B3000AB6A9C42F2D12046FFF7E2FC0F2102464D
:100B40003846FFF7DFFE38462A460021FFF7DAFE77
:100B5000072050E70D213846D5F82090FFF7ACFE6E
:100B6000814501D02368B6E7AB6A9C42FAD10423E1
:100B70000022C5E90B23E318C5F828B06B6323688E
:100B8000002B59DB01230193A8E705F15803CDF8A9
:100B90000C8004F1040AB04691461E460EE0504611
:100BA0000496FFF775FD0022014604AB284609F1C3
:100BB00001090AF1040AAFF30080E0B9D945EED18A
:100BC0000D213846FFF778FE049BAC62C5E90803A7
:100BD000062010E781460D213846FFF76DFEB9F17A
:100BE000020F286225D12B46049A43F82C2F6B6202
:100BF000AC620620FFE646462368DDF80C806AE713
:100C00002046FFF77DFC04340246AC6328461446B8
:100C1000AFF3008000283FF4EDAE384622460F21A6
:100C2000FFF770FE0720E6E60D213846FFF744FE89
:100C30002862049B6B62DBE70BF1010004EB800090
:100C40007AE700BF000000000023A9E60123A7E621
:100C50000223A5E62DE9F0430646C3B015461C461F
:100C6000042900F2BF80DFE801F09E57BD2D03008C
:100C7000002C40F0B780102A00F2B4800368D80638
:100C800000F1F98020AF384600F098F9B46B39468E
:100C900000234FF0010C0CFA03F22A42204603F124
:100CA000010303D050F8042B0A600446042B01F121
:100CB0000401F0D13846B46300F076F9002043B067
:100CC000BDE8F083032C40F08D8094B204EB124316
:100CD000102B4FEA124500F2858003681F0700F1D0
:100CE000D28020AF384600F03DF9B26B07EBC5016A
:100CF00054B10B46D01A01EBC401E4001D5843F86F
:100D0000045B8B42FAD122443846B26300F008F902
:100D1000002043B0BDE8F083012C4FEA124895B2A1
:100D20005CD0052C5ED108EB0509B9F1200F59D82C
:100D3000B8F10F0F79D9A946002D40F08A80B36B26
:100D40006DB320AF4FF0000907EBC807043F03EB7A
:100D5000C50553F8041B47F8041FAB42F9D1B9F19C
:100D6000000F0FD06F464146102938BF102107EB06
:100D7000C101843903EBC90553F8040B41F8040F92
:100D8000AB42F9D1012C00F08680B8F10F0FB563AA
:100D900047D9B9F1000F02D0684600F0B9F8002039
:100DA00043B0BDE8F083ECB9806B23461FFA82FCA8
:100DB0000124371D04FA03F212EA0C0F014604D095
:100DC00051F8042B47F8232008460133102BF1D1AA
:100DD00015F40055E3D1B063284604E008EB0503A1
:100DE000102B03D9022043B0BDE8F083B8F10F0FF8
:100DF000F8D83368DA0706D5304623F0030340F805
:100E0000483B00F079F820AF384600F075F8B36B36
:100E1000002D97D11D460435B563384600F068F8BB
:100E2000BDE720A800F06CF8B3E7B9F1100F40D986
:100E3000A9F110093368D90708D523F0010330461A
:100E400043F0020340F8483B00F05EF8B9F1000FB0
:100E500032D033685A0720D4B8F10F0F25D96F4626
:100E60003846C8F1100500F057F8002DB36B7FF736
:100E70007AAF20AF68E723F01003336006F5E8701F
:100E800000F09CF8FEE623F00803036000F5A8706C
:100E900000F068F825E720AFBDE7304623F00403F3
:100EA00040F8D03B00F038F8D6E720A800F02CF846
:100EB000D5E74FF00009BDE7B8F10F0F3FF63FAFA0
:100EC00020AF384600F020F8B36B002D7FF43AAF26
:100ED000384600F015F862E700F1340191E8380077
:100EE0009C46A6464CF8045D90E8FF0FE54600BD21
:100EF00090EC210B704700BF80EC210B704700BFC6
:100F000090EC200B704700BF80EC200B704700BFB7
:100F1000D0EC200B704700BFC0EC200B704700BF27
:100F2000F0EC0201F0EC0211F0EC0221F0EC0231E5
:100F3000F0EC0241F0EC0251F0EC0261F0EC0271D5
:100F4000F0EC0281F0EC0291F0EC02A1F0EC02B1C5
:100F5000F0EC02C1F0EC02D1F0EC02E1F0EC02F1B5
:100F6000704700BFE0EC0201E0EC0211E0EC02216E
:100F7000E0EC0231E0EC0241E0EC0251E0EC026115
:100F8000E0EC0271E0EC0281E0EC0291E0EC02A105
:100F9000E0EC02B1E0EC02C1E0EC02D1E0EC02E1F5
:100FA000E0EC02F1704700BFB0FC0181B0FC0191A0
:100FB000B0FC01A1B0FC01B1704700BFA0FC0181F1
:100FC000A0FC0191A0FC01A1A0FC01B1704700BFF1
:100FD000EC4600B52DE900502DE9FF1F4FF000034E
:100FE0002DE90C0001A9FFF7E1FBDDF840E012B0AC
:100FF000704700BFEC4600B52DE900502DE9FF1FFA
:101000004FF000032DE90C0001A9FFF70BFCDDF800
:1010100040E012B0704700BFEC4600B52DE900502B
:101020002DE9FF1F4FF000032DE90C0001A9FFF788
:101030001BFCDDF840E012B0704700BFEC4600B585
:101040002DE900502DE9FF1F4FF000032DE90C00A2
:1010500001ABFFF7DFFBDDF840E012B0704700BFE7
:10106000EC4600B52DE900502DE9FF1F4FF00003BD
:101070002DE90C0001AAFFF751FCDDF840E012B0A9
:10108000704700BF027A03467AB9427AA2B141683A
:10109000013A10B44272086803220C1D1A7202024F
:1010A0005C60000E10BC1A6070470068013A1A724A
:1010B00002021A60000E7047B020704700B585B07C
:1010C000002303AA009219460C22FFF7DDFB0398C8
:1010D00005B05DF804FB00BFF0E700BF2DE9F04369
:1010E000054685B00E464FF000083046FFF7CAFFB0
:1010F000B028044600F0BA80070620D500F0F003BF
:10110000802B4DD0902B36D0A02B60D0B02B74D03C
:10111000C02B00F08B8000F0F803D02B0BD100F037
:1011200007020132052342F4002201212846FFF77D
:1011300091FD0028D9D0092005B0BDE8F0838300D7
:10114000DBB21F1D0DF10C0900231946CDF80090EC
:101150000D222846FFF798FB039BCDF80090600610
:101160004CBFDF1BFF1800230D22194628460397AA
:10117000FFF7B0FBB9E700F00D030D2BDBD003AF99
:10118000002300F00F02194600972846FFF77CFB6A
:10119000002300970D2219462846FFF79BFBA4E782
:1011A0003046FFF76FFF24022043B0F5004FC2D056
:1011B00004010023A2B219462846FFF74BFD002880
:1011C000B9D114F4004F18BF4FF001088DE7C243A6
:1011D00002F007034FF47F621A41010702F47F62B5
:1011E0004FF0000348BF42F4804219462846FFF7FB
:1011F00031FD00283FF479AF9DE7B1283BD0B228FC
:1012000000F09380B32841D000F0FC03B42B92D0BF
:1012100000F007020132012342F400221946284659
:10122000FFF718FD00283FF460AF84E7C6284AD0D6
:10123000C72854D000F0F803C02B63D0C82868D06A
:10124000C9287FF478AF3046FFF71CFF020300F097
:101250000F0002F4702201300243012105232846C9
:10126000FFF7F8FC00283FF440AF64E7B8F1000F47
:1012700018D0002060E73046FFF704FF0246002840
:101280003FF459AF10F0F003C8D054E73046FFF7F1
:10129000F9FE020300F00F03013302F470221A4337
:1012A0000123BBE703AC43460E2241460094284687
:1012B000FFF7EAFA009443460F2241462846FFF71B
:1012C00009FB404638E73046FFF7DCFE020300F03A
:1012D0000F03013302F470221A4303239EE73046C2
:1012E000FFF7D0FE024600283FF425AF10F0F003D0
:1012F0007FF421AF04212846FFF7ACFC00283FF41F
:10130000F4AE18E700F00F020132032342F420226A
:1013100084E73046FFF7B6FE00F0F00200F00F035E
:101320001032013343EA023297E700230DF10C0932
:101330000D221946CDF800902846FFF7A5FA304651
:10134000FFF7A0FE02064FF002040CD5039B00F04D
:101350007F00A040184403903046FFF793FE030639
:1013600004F10704F2D4039BCDF8009000F07F0253
:10137000A24003F501731A440023039219460D227B
:101380002846FFF7A7FAB0E610B5C26C536884B0E0
:101390004FF0030C08321C0208461B0E01A90194F1
:1013A00002928DF80CC08DF80D30FFF797FE04B057
:1013B00010BD00BF08B5FFF78FFE806C08BD00BFF1
:1013C00008B5FFF789FEC06CC379023300EB8300D8
:1013D00008BD00BF704700BF844641EA000313F018
:1013E00003036DD1403A41D351F8043B40F8043B2C
:1013F00051F8043B40F8043B51F8043B40F8043BEF
:1014000051F8043B40F8043B51F8043B40F8043BDE
:1014100051F8043B40F8043B51F8043B40F8043BCE
:1014200051F8043B40F8043B51F8043B40F8043BBE
:1014300051F8043B40F8043B51F8043B40F8043BAE
:1014400051F8043B40F8043B51F8043B40F8043B9E
:1014500051F8043B40F8043B51F8043B40F8043B8E
:1014600051F8043B40F8043B403ABDD2303211D32E
:1014700051F8043B40F8043B51F8043B40F8043B6E
:1014800051F8043B40F8043B51F8043B40F8043B5E
:10149000103AEDD20C3205D351F8043B40F8043B2E
:1014A000043AF9D2043208D0D2071CBF11F8013B2C
:1014B00000F8013B01D30B8803806046704700BFF2
:1014C000082A13D38B078DD010F003038AD0C3F101
:1014D0000403D21ADB071CBF11F8013B00F8013BE3
:1014E00080D331F8023B20F8023B7BE7043AD9D3A2
:1014F000013A11F8013B00F8013BF9D20B78037077
:101500004B7843708B788370604670470000000012
:1015100001F0FF01102A2BDB10F0070F08D010F8A4
:10152000013B013A8B422DD010F0070F42B3F6D1A8
:10153000F0B441EA012141EA014122F007047FF0C1
:1015400000070023F0E80256083C85EA010586EA18
:10155000010685FA47F5A3FA87F586FA47F6A5FA54
:1015600087F68EB9EED1F0BC01F0FF0102F0070260
:1015700032B110F8013B013A83EA010313B1F8D10B
:101580000020704701387047002D06BF35460338EC
:10159000073815F0010F07D1013015F4807F02BF25
:1015A000013015F4C03F0130F0BC0138704700BF76
:1015B000000000000000000000000000000000002B
:1015C00090F800F06DE9024520F007016FF0000C83
:1015D00010F0070491F820F040F049804FF000042B
:1015E0006FF00700D1E9002391F840F000F1080006
:1015F00082FA4CF2A4FA8CF283FA4CF3A2FA8CF33E
:101600004BBBD1E9022382FA4CF200F10800A4FAA4
:101610008CF283FA4CF3A2FA8CF3E3B9D1E90423F8
:1016200082FA4CF200F10800A4FA8CF283FA4CF32F
:10163000A2FA8CF37BB9D1E9062301F1200182FAE9
:101640004CF200F10800A4FA8CF283FA4CF3A2FAEF
:101650008CF3002BC6D0002A04BF04301A4612BAFD
:10166000B2FA82F2FDE8024500EBD2007047D1E900
:10167000002304F00305C4F100004FEAC50514F08F
:10168000040F91F840F00CFA05F562EA05021CBF60
:1016900063EA050362464FF00004A9E781F00041C8
:1016A00002E000BF83F0004330B54FEA41044FEA47
:1016B000430594EA050F08BF90EA020F1FBF54EAE2
:1016C000000C55EA020C7FEA645C7FEA655C00F07E
:1016D000E2804FEA5454D4EB5555B8BF6D420CDD4F
:1016E0002C4480EA020281EA030382EA000083EAD2
:1016F000010180EA020281EA0303362D88BF30BD72
:1017000011F0004F4FEA01314FF4801C4CEA1131C7
:1017100002D0404261EB410113F0004F4FEA033326
:101720004CEA133302D0524263EB430394EA050FB1
:1017300000F0A780A4F10104D5F1200E0DDB02FA20
:101740000EFC22FA05F2801841F1000103FA0EF2B4
:10175000801843FA05F359410EE0A5F120050EF17A
:10176000200E012A03FA0EFC28BF4CF0020C43FAAB
:1017700005F3C01851EBE37101F0004507D54FF0B8
:10178000000EDCF1000C7EEB00006EEB0101B1F508
:10179000801F1BD3B1F5001F0CD349085FEA30004E
:1017A0004FEA3C0C04F101044FEA445212F5800F59
:1017B00080F09A80BCF1004F08BF5FEA500C50F1F6
:1017C000000041EB045141EA050130BD5FEA4C0CD9
:1017D000404141EB0101013C28BFB1F5801FE9D236
:1017E00091F0000F04BF01460020B1FA81F308BF59
:1017F0002033A3F10B03B3F120020CDA0C3208DD25
:1018000002F1140CC2F10C0201FA0CF021FA02F1FF
:101810000CE002F11402D8BFC2F1200C01FA02F16F
:1018200020FA0CFCDCBF41EA0C019040E41AA2BF94
:1018300001EB0451294330BD6FEA04041F3C1CDA5C
:101840000C340EDC04F11404C4F1200220FA04F07C
:1018500001FA02F340EA030021FA04F345EA030126
:1018600030BDC4F10C04C4F1200220FA02F001FAE8
:1018700004F340EA0300294630BD21FA04F029466A
:1018800030BD94F0000F83F4801306BF81F4801103
:101890000134013D4EE77FEA645C18BF7FEA655C76
:1018A00029D094EA050F08BF90EA020F05D054EA48
:1018B000000C04BF1946104630BD91EA030F1EBF4D
:1018C0000021002030BD5FEA545C05D14000494151
:1018D00028BF41F0004130BD14F580043CBF01F544
:1018E000801130BD01F0004545F0FE4141F470012A
:1018F0004FF0000030BD7FEA645C1ABF1946104605
:101900007FEA655C1CBF0B46024650EA013406BF05
:1019100052EA033591EA030F41F4002130BD00BFC4
:1019200090F0000F04BF0021704730B54FF4806481
:1019300004F132044FF000054FF0000150E700BF02
:1019400090F0000F04BF0021704730B54FF4806461
:1019500004F1320410F0004548BF40424FF000014E
:101960003EE700BF42004FEAE2014FEA31014FEA91
:1019700002701FBF12F07F4393F07F4F81F06051E0
:10198000704732F07F4208BF704793F07F4F04BF2B
:1019900041F40021704730B54FF4607401F0004508
:1019A00021F000411CE700BF50EA010208BF704768
:1019B00030B54FF000050AE050EA010208BF704759
:1019C00030B511F0004502D5404261EB41014FF4C2
:1019D000806404F132045FEA915C3FF4D8AE4FF0CA
:1019E00003025FEADC0C18BF03325FEADC0C18BFAD
:1019F000033202EBDC02C2F1200300FA03FC20FAFE
:101A000002F001FA03FE40EA0E0021FA02F114444A
:101A1000BDE600BF70B54FF0FF0C4CF4E06C1CEA63
:101A200011541DBF1CEA135594EA0C0F95EA0C0FD4
:101A300000F0DEF82C4481EA030621EA4C5123EA47
:101A40004C5350EA013518BF52EA033541F4801176
:101A500043F4801338D0A0FB02CE4FF00005E1FB29
:101A600002E506F00042E0FB03E54FF00006E1FB73
:101A700003569CF0000F18BF4EF0010EA4F1FF04B6
:101A8000B6F5007F64F5407404D25FEA4E0E6D41F6
:101A900046EB060642EAC62141EA55514FEAC52007
:101AA00040EA5E504FEACE2EB4F1FD0C88BFBCF583
:101AB000E06F1ED8BEF1004F08BF5FEA500E50F134
:101AC000000041EB045170BD06F0004646EA0101FA
:101AD00040EA020081EA0301B4EB5C04C2BFD4EB2C
:101AE0000C0541EA045170BD41F480114FF0000E25
:101AF000013C00F3AB8014F1360FDEBF002001F093
:101B0000004170BDC4F10004203C35DA0C341BDC0C
:101B100004F11404C4F1200500FA05F320FA04F0DE
:101B200001FA05F240EA020001F0004221F0004112
:101B300010EBD37021FA04F642EB06015EEA430E85
:101B400008BF20EAD37070BDC4F10C04C4F12005B5
:101B500000FA04F320FA05F001FA04F240EA020068
:101B600001F0004110EBD37041F100015EEA430E39
:101B700008BF20EAD37070BDC4F1200500FA05F259
:101B80004EEA020E20FA04F301FA05F243EA0203D8
:101B900021FA04F001F0004121FA04F220EA0200E7
:101BA00000EBD3705EEA430E08BF20EAD37070BD2D
:101BB00094F0000F0FD101F00046400041EB01010D
:101BC00011F4801F08BF013CF7D041EA060195F0EF
:101BD000000F18BF704703F00046520043EB0303A9
:101BE00013F4801F08BF013DF7D043EA0603704796
:101BF00094EA0C0F0CEA135518BF95EA0C0F0CD0A1
:101C000050EA410618BF52EA4306D1D181EA0301E6
:101C100001F000414FF0000070BD50EA410606BFE0
:101C20001046194652EA430619D094EA0C0F02D125
:101C300050EA013613D195EA0C0F05D152EA03366A
:101C40001CBF104619460AD181EA030101F0004188
:101C500041F0FE4141F470014FF0000070BD41F0D1
:101C6000FE4141F4780170BD70B54FF0FF0C4CF4AB
:101C7000E06C1CEA11541DBF1CEA135594EA0C0FCA
:101C800095EA0C0F00F0A7F8A4EB050481EA030E17
:101C900052EA03354FEA013100F088804FEA0333FE
:101CA0004FF0805545EA131343EA12634FEA0222CC
:101CB00045EA111545EA10654FEA00260EF000418D
:101CC0009D4208BF964244F1FD0404F5407402D2DF
:101CD0005B084FEA3202B61A65EB03055B084FEA70
:101CE00032024FF480104FF4002CB6EB020E75EB6D
:101CF000030E22BFB61A754640EA0C005B084FEA95
:101D00003202B6EB020E75EB030E22BFB61A754611
:101D100040EA5C005B084FEA3202B6EB020E75EB5C
:101D2000030E22BFB61A754640EA9C005B084FEAD4
:101D30003202B6EB020E75EB030E22BFB61A7546E1
:101D400040EADC0055EA060E18D04FEA051545EAD0
:101D500016754FEA06164FEAC30343EA52734FEA79
:101D6000C2025FEA1C1CC0D111F4801F0BD141EAF2
:101D700000014FF000004FF0004CB6E711F4801F57
:101D800004BF01430020B4F1FD0C88BFBCF5E06F37
:101D90003FF6AFAEB5EB030C04BFB6EB020C5FEA47
:101DA000500C50F1000041EB045170BD0EF0004E9C
:101DB0004EEA113114EB5C04C2BFD4EB0C0541EACE
:101DC000045170BD41F480114FF0000E013C90E6CB
:101DD00045EA060E8DE60CEA135594EA0C0F08BF8F
:101DE00095EA0C0F3FF43BAF94EA0C0F0AD150EA8E
:101DF00001347FF434AF95EA0C0F7FF425AF104621
:101E000019462CE795EA0C0F06D152EA03353FF448
:101E1000FDAE1046194622E750EA410618BF52EAC5
:101E200043067FF4C5AE50EA41047FF40DAF52EA99
:101E300043057FF4EBAE12E74FF0FF3C06E000BF36
:101E40004FF0010C02E000BF4FF0010C4DF804CD43
:101E50004FEA410C7FEA6C5C4FEA430C18BF7FEA03
:101E60006C5C1BD001B050EA410C0CBF52EA430C31
:101E700091EA030F02BF90EA020F0020704710F1B1
:101E8000000F91EA030F58BF994208BF90422CBF40
:101E9000D8176FEAE37040F0010070474FEA410C39
:101EA0007FEA6C5C02D150EA013C07D14FEA430C57
:101EB0007FEA6C5CD6D152EA033CD3D05DF8040BC8
:101EC000704700BF8446104662468C4619466346FA
:101ED00000E000BF01B5FFF7B7FF002848BF10F1D1
:101EE000000F01BD4DF808EDFFF7F4FF0CBF012016
:101EF00000205DF808FB00BF4DF808EDFFF7EAFF92
:101F000034BF012000205DF808FB00BF4DF808ED4C
:101F1000FFF7E0FF94BF012000205DF808FB00BF41
:101F20004DF808EDFFF7CEFF94BF012000205DF8CB
:101F300008FB00BF4DF808EDFFF7C4FF34BF0120D8
:101F400000205DF808FB00BF4FEA410C7FEA6C5CA3
:101F500002D150EA013C0AD14FEA430C7FEA6C5CA3
:101F600002D152EA033C02D14FF0000070474FF01B
:101F7000010070474FEA410212F5001215D211D547
:101F80006FF47873B3EB625212D94FEAC12343F076
:101F9000004343EA505311F0004F23FA02F018BFF8
:101FA000404270474FF00000704750EA013005D1C1
:101FB00011F0004008BF6FF0004070474FF0000084
:101FC000704700BF70B582B006460D46002409E098
:101FD0008DF804306423012201A9304602F008FF85
:101FE0000134A4B22B5D002BF2D102B070BD000011
:101FF00000B58DB003683B4A93421BD03A4A9342E6
:102000003BD03A4A934245D0394A93424FD0394A5D
:10201000934259D0384A934218D100230693374B44
:102020001A6B42F080021A631B6B03F08003069365
:10203000069B0BE000230193304B1A6B42F0010228
:102040001A631B6B03F001030193019B00230793A9
:10205000089309930A930B938388079383680893E3
:102060000369099343690A93C3680B9307A900683E
:1020700001F078F80DB05DF804FB002302931F4BCC
:102080001A6B42F002021A631B6B03F00203029305
:10209000029BDBE700230393184B1A6B42F0040208
:1020A0001A631B6B03F004030393039BCEE7002327
:1020B0000493124B1A6B42F008021A631B6B03F075
:1020C00008030493049BC1E7002305930B4B1A6B91
:1020D00042F080021A631B6B03F080030593059B9B
:1020E000B4E700BF000002400004024000080240C4
:1020F000000C024000100240001C02400038024068
:102100002DE9F04186B00446AE238DF817304FF428
:102110007A770297012501950DF1170600962B4657
:1021200090F8582090F8541001F03AFD20238DF8D3
:1021300017300297019500962B4694F8582094F892
:102140005410204601F02CFD4FF000088DF8178048
:102150000297019500962B4694F8582094F8541055
:10216000204601F01DFD81238DF81730029701955F
:1021700000962B4694F8582094F85410204601F00D
:102180000FFDFF238DF817300297019500962B461F
:1021900094F8582094F85410204601F001FDC8230B
:1021A0008DF817300297019500962B4694F8582029
:1021B00094F85410204601F0F3FCA1238DF8173059
:1021C0000297019500962B4694F8582094F85410E5
:1021D000204601F0E5FCA8238DF817300297019501
:1021E00000962B4694F8582094F85410204601F09D
:1021F000D7FC3F238DF817300297019500962B46A8
:1022000094F8582094F85410204601F0C9FCD323C8
:102210008DF817300297019500962B4694F85820B8
:1022200094F85410204601F0BBFC8DF817800297FB
:10223000019500962B4694F8582094F854102046A7
:1022400001F0AEFCD5238DF817300297019500966A
:102250002B4694F8582094F85410204601F0A0FC26
:1022600080238DF817300297019500962B4694F83D
:10227000582094F85410204601F092FCD8238DF891
:1022800017300297019500962B4694F8582094F841
:102290005410204601F084FC05238DF81730029776
:1022A000019500962B4694F8582094F85410204637
:1022B00001F076FCD9238DF817300297019500962E
:1022C0002B4694F8582094F85410204601F068FCEE
:1022D000F1238DF817300297019500962B4694F85C
:1022E000582094F85410204601F05AFCDA238DF857
:1022F00017300297019500962B4694F8582094F8D1
:102300005410204601F04CFC12238DF81730029730
:10231000019500962B4694F8582094F854102046C6
:1023200001F03EFCDB238DF81730029701950096F3
:102330002B4694F8582094F85410204601F030FCB5
:1023400030238DF817300297019500962B4694F8AC
:10235000582094F85410204601F022FC8D238DF86B
:1023600017300297019500962B4694F8582094F860
:102370005410204601F014FC14238DF817300297F6
:10238000019500962B4694F8582094F85410204656
:1023900001F006FCA4238DF81730029701950096F2
:1023A0002B4694F8582094F85410204601F0F8FB7E
:1023B000A6238DF817300297019500962B4694F8C6
:1023C000582094F85410204601F0EAFB22238DF89F
:1023D00017300297019500962B4694F8582094F8F0
:1023E0005410204601F0DCFB8DF817800297019510
:1023F00000962B4694F8582094F85410204601F08B
:10240000CFFB94F855308DF8173002970195009660
:102410002B4694F8582094F85410204601F0C0FB45
:1024200021238DF817300297019500962B4694F8DA
:10243000582094F85410204601F0B2FB8DF8178014
:102440000297019500962B4694F8582094F8541062
:10245000204601F0A5FB94F857308DF8173002970D
:10246000019500962B4694F8582094F85410204675
:1024700001F096FB13E000238DF817304FF47A73C8
:102480000293012301930DF11702009294F8592051
:1024900094F85410204601F083FB08F1010894F8E9
:1024A000552094F85730013302FB03334345E2DCF7
:1024B000AF238DF817304FF47A7302930123019301
:1024C0000DF11702009294F8582094F85410204609
:1024D00001F066FB06B0BDE8F08100002DE9F04F89
:1024E0008BB00446059190469946DDF850B04FF008
:1024F000000A64E2203A02EBC202964B03EB42026E
:10250000177C22238DF827304FF47A73029301262B
:1025100001960DF127020092334694F8582094F862
:102520005410204601F03CFB059A8DF827204FF40B
:102530007A73029301960DF127020092334694F8C4
:10254000582094F85410204601F02AFB94F8553096
:102550008DF827304FF47A73029301960DF127021C
:102560000092334694F8582094F85410204601F015
:1025700017FB21238DF827304FF47A7302930196CD
:102580000DF127020092334694F8582094F8541025
:10259000204601F005FB8DF827804FF47A730293F3
:1025A00001960DF127020092334694F8582094F8D2
:1025B0005410204601F0F4FA94F857308DF8273083
:1025C0004FF47A73029301960DF12703009333467B
:1025D00094F8582094F85410204601F0E1FA0026AF
:1025E000B74240F3FC812B78203BC3EBC3035A4A2C
:1025F00013449B5D08F101085FFA88F88DF82730D5
:102600004FF47A730293012301930DF12702009294
:1026100094F8592094F85410204601F0C1FA01367C
:10262000DEE72B78203B03EBC3034A4A02EB43036C
:102630001F7C22238DF827304FF47A7302930126F2
:1026400001960DF127020092334694F8582094F831
:102650005410204601F0A4FA059A8DF827204FF473
:102660007A73029301960DF127020092334694F893
:10267000582094F85410204601F092FA94F85530FE
:102680008DF827304FF47A73029301960DF12702EB
:102690000092334694F8582094F85410204601F0E4
:1026A0007FFA21238DF827304FF47A730293019635
:1026B0000DF127020092334694F8582094F85410F4
:1026C000204601F06DFA8DF827804FF47A7302935B
:1026D00001960DF127020092334694F8582094F8A1
:1026E0005410204601F05CFA94F857308DF82730EA
:1026F0004FF47A73029301960DF12703009333464A
:1027000094F8582094F85410204601F049FA002615
:10271000B74223DD2B78203B03EBC30333440D4A40
:1027200012F8133008F101085FFA88F88DF82730A5
:102730004FF47A730293012301930DF12702009263
:1027400094F8592094F85410204601F029FA0136E3
:10275000DEE700BFE8B100084CAF0008059B01337D
:10276000DBB20693A8EB0703D9B2079122238DF8B9
:1027700027304FF47A730293012601960DF127005A
:102780000090334694F8582094F85410204601F0F5
:1027900007FA069A8DF827204FF47A730293019670
:1027A0000DF127020092334694F8582094F8541003
:1027B000204601F0F5F994F855308DF827304FF4A4
:1027C0007A73029301960DF127020092334694F832
:1027D000582094F85410204601F0E2F921238DF896
:1027E00027304FF47A73029301960DF1270200927D
:1027F000334694F8582094F85410204601F0D0F94C
:1028000007998DF827104FF47A73029301960DF112
:1028100027020092334694F8582094F8541020462A
:1028200001F0BEF994F857308DF827304FF47A73E1
:10283000029301960DF127030093334694F8582034
:1028400094F85410204601F0ABF90026B74240F34B
:10285000CA802B78203B03EBC3033344B24A32F8DF
:1028600013301B0A8DF827304FF47A73029301233B
:1028700001930DF12702009294F8592094F8541016
:10288000204601F08DF90136E0E7059B0133DBB20C
:102890000693A8EB0703D9B2079122238DF82730BE
:1028A0004FF47A730293012601960DF127000090F0
:1028B000334694F8582094F85410204601F070F9EB
:1028C000069A8DF827204FF47A73029301960DF142
:1028D00027020092334694F8582094F8541020466A
:1028E00001F05EF994F855308DF827304FF47A7383
:1028F000029301960DF127020092334694F8582076
:1029000094F85410204601F04BF921238DF827301C
:102910004FF47A73029301960DF127020092334629
:1029200094F8582094F85410204601F039F907998A
:102930008DF827104FF47A73029301960DF1270258
:102940000092334694F8582094F85410204601F031
:1029500027F994F857308DF827304FF47A730293A3
:1029600001960DF127030093334694F8582094F80C
:102970005410204601F014F90026B7421DDD2B78D3
:10298000203B03EB830203EB42033344674A32F8F4
:1029900013301B0A8DF827304FF47A73029301230A
:1029A00001930DF12702009294F8592094F85410E5
:1029B000204601F0F5F80136DFE70AF1010A0BEBDA
:1029C0000A051BF80A20002A00F0AB80A2F12003C0
:1029D000DBB25E2BF1D8B9F1080F3FF48BADB9F142
:1029E0000C0F3FF41EAEB9F1100FE6D12B78203B4F
:1029F00003EBC3034C4A02EB43031F7C22238DF8F5
:102A000027304FF47A730293012601960DF12702C5
:102A10000092334694F8582094F85410204601F060
:102A2000BFF8059A8DF827204FF47A730293019628
:102A30000DF127020092334694F8582094F8541070
:102A4000204601F0ADF894F855308DF827304FF45A
:102A50007A73029301960DF127020092334694F89F
:102A6000582094F85410204601F09AF821238DF84C
:102A700027304FF47A73029301960DF127020092EA
:102A8000334694F8582094F85410204601F088F802
:102A90008DF827804FF47A73029301960DF1270287
:102AA0000092334694F8582094F85410204601F0D0
:102AB00077F894F857308DF827304FF47A730293F3
:102AC00001960DF127030093334694F8582094F8AB
:102AD0005410204601F064F80026B7427FF7D5AEC7
:102AE0002B78203B03EB830203EB420333440F4A72
:102AF00012F8133008F101085FFA88F88DF82730D2
:102B00004FF47A730293012301930DF1270200928F
:102B100094F8592094F85410204601F041F80136F9
:102B2000DBE70BB0BDE8F08FE8B1000898B800080B
:102B300000B583B0002301930E4A516C41F400317B
:102B40005164526C02F400320192019A0A480B4A15
:102B500002606322426083600122C260036183617C
:102B600001F04AFF10B903B05DF804FB00F0CCF9A6
:102B7000F9E700BF00380240280A00200044014065
:102B800000B587B0002300930F4A116B41F002019A
:102B90001163126B02F002020092009A01930293F9
:102BA0000393049305934FF440730193122302930C
:102BB00003230493042305930DEB0301034800F062
:102BC000D1FA07B05DF804FB00380240000402406F
:102BD00000B583B0FFF7D4FF00230193104A116CB6
:102BE00041F400111164126C02F400120192019A76
:102BF0000C480D4A02600D4A42608360C3604FF486
:102C00008042026143618361C361036200F07AFE26
:102C100010B903B05DF804FB00F076F9F9E700BFE6
:102C200000380240D409002000540040801A0600F9
:102C300000B587B0002300930E4A116B41F00101EB
:102C40001163126B02F001020092009A0193029349
:102C5000039304930593C023019302230293032358
:102C600004930723059301A9034800F07BFA07B0FA
:102C70005DF804FB003802400004024000B583B058
:102C8000FFF7D6FF002301930F4A516C41F010016A
:102C90005164526C02F010020192019A0B480C4AE6
:102CA00002604FF4E13242608360C36003610C2232
:102CB00042618361C36102F01BF810B903B05DF893
:102CC00004FB00F021F9F9E700380240700A002007
:102CD0000010014070B5DEB0FFF77AFFFFF7CEFFBE
:102CE000FFF726FF44227A494DA8FEF775FB4822DC
:102CF00078493BA8FEF770FB5422774925A8FEF7D8
:102D00006BFB01238DF8E83074494DA8FFF75AF9A1
:102D1000002417E000232BE00025714BEB5C53B13E
:102D20008DF818306423012206A94DA802F060F83E
:102D30000135ADB2F1E7FE2C34D014F00F0F41D0C5
:102D40000134E4B2FF2C4DD0012CF9D9264614F001
:102D5000010FF5D1012302930193002200929DF807
:102D6000E830214625A800F0D9FF0028D2D1012360
:102D7000002BD1D000250695ADF81C50324659499C
:102D800006A802F0FBF906AB5B5D002BD3D08DF8F3
:102D900014306423012205A94DA802F029F8013559
:102DA000ADB2F0E70025504BEB5C002BC5D08DF8A1
:102DB00018306423012206A94DA802F019F8013544
:102DC000ADB2F0E70025494BEB5C002BB8D08DF895
:102DD00018306423012206A94DA802F009F8013534
:102DE000ADB2F0E742494DA8FFF7ECF8414B1F9315
:102DF0004FF40053ADF88030012321930024239435
:102E0000032324931FA8FFF7F3F82246BDF8801090
:102E10001F9800F0F9FA2246BDF880101F9800F0C4
:102E2000F3FA54222C4908A8FEF7D6FA8DF8784018
:102E300040238DF8793078238DF8743007238DF88E
:102E400075308DF876307F238DF8773008A8FFF73E
:102E500057F9294B00930C232246214608A8FFF777
:102E60003DFB264B00930C232246022108A8FFF7C6
:102E700035FB234B00930C232246042108A8FFF7BF
:102E80002DFB204B00930C232246062108A8FFF7B8
:102E900025FB1AE03B9B5B6A9BB24FF6F9729342AB
:102EA000F8D93BA801F01CFD0134B4F57A7F07DAAC
:102EB0003BA801F0B7FC4FF613433B9A5362ECE793
:102EC000BDF880101F9800F0BBFA0024EDE700BFAA
:102ED000700A0020280A0020D4090020D0AE000883
:102EE00004AF0008FCAE00080CAF000814AF0008E7
:102EF00018AF0008000802401CAF000828AF000807
:102F000034AF000840AF000872B6FEE7704700001B
:102F100000B595B03022002108A802F097F80023F0
:102F2000039304930593069307930193204A116C2E
:102F300041F080511164126C02F080520192019AAA
:102F400002931C4B1A6842F440421A601B6803F457
:102F500040430293029B052308934FF48033099367
:102F600001230A9302230E934FF480020F92192239
:102F70001092C822119212930423139308A801F00F
:102F80004BF888B90F23039302230493002305937E
:102F90004FF4805206920793032103A801F00CFB23
:102FA00020B915B05DF804FBFFF7AEFFFFF7ACFFEB
:102FB000003802400070004008B500F02FF8FFF71D
:102FC000A7FFFFF787FE002008BD704770477047D6
:102FD00010B504460E4B18784FF47A73B3FBF0F338
:102FE0000C4A1068B0FBF3F000F0A8F868B90F2C99
:102FF00001D901200AE0002221464FF0FF3000F005
:1030000057F8054B1C60002000E0012010BD00BFF8
:1030100000000020080000200400002008B50B4B31
:103020001A6842F400721A601A6842F480621A60E8
:103030001A6842F480721A60032000F01BF80F2017
:10304000FFF7C6FFFFF7C3FF002008BD003C0240AA
:10305000034A1168034B1B780B441360704700BF91
:10306000B40A002000000020014B1868704700BF20
:10307000B40A002010B50446C31E042B0FD80A4A18
:10308000D36823F4E0631B041B0C240204F4E06403
:10309000234343F0BF6343F40033D36010BD922158
:1030A0000248FFF733FFEAE700ED00E0C4C0000884
:1030B00070B505460C4616460F2A25D80F2C28D881
:1030C0001B4BDB68C3F30223C3F10701042928BFAC
:1030D00004211A1D062A21D9033B4FF0FF3202FAC0
:1030E00001F124EA01049C4002FA03F326EA0306F4
:1030F0003443002D14DB2401E4B205F1604505F5ED
:10310000614585F8004370BDAA210A48FFF7FEFE1D
:10311000D4E7AB210748FFF7F9FED1E70023DCE74E
:1031200005F00F052401E4B2034B5C55EBE700BF4B
:1031300000ED00E0C4C0000814ED00E00138B0F17B
:10314000807F0BD24FF0E0235861054AF02182F8CE
:1031500023100020986107221A61704701207047F0
:1031600000ED00E02DE9F04182B007460E46A14B8C
:10317000984217D003F58063984213D003F580631B
:1031800098420FD003F5806398420BD003F580631B
:10319000984207D003F54063984203D0AC2196488B
:1031A000FFF7B4FE33689AB212B11B0C1B041BB1BB
:1031B000AD219148FFF7AAFE7368012B19D9112B95
:1031C00017D0022B15D0122B13D0B3F5881F10D0B7
:1031D000B3F5041F0DD0B3F5441F0AD0B3F5901F0B
:1031E00007D0B3F5081F04D0B3F5481F01D0032B57
:1031F00001D100248BE0AE217F48FFF787FEF8E77E
:10320000F368032B13D8BA68610003238B4022EACA
:103210000302F3688B401343BB607A6822EA05021D
:103220007368C3F30015A54015437D6080E0C0219D
:103230007148FFF76BFEE6E7D1216F48FFF766FEA6
:103240007FE03369ABB1092B13D0012B11D0022BD6
:103250000FD0042B0DD0052B0BD0062B09D0072B3C
:1032600007D0082B05D00A2B03D00C2B01D00F2B35
:1032700010D1E208083257F8220004F00703990041
:103280000F238B4020EA030033698B40034347F848
:10329000223066E0DE215848FFF738FEE9E70423D4
:1032A00000E000238B4003430232544941F82230AE
:1032B000534B1A686FEA080322EA0801706810F499
:1032C000803F01D048EA02014D4A1160526803EA8A
:1032D0000201706810F4003F01D048EA0201484A38
:1032E0005160926803EA0201706810F4801F01D0F7
:1032F00048EA0201424A9160D2681340716811F4B1
:10330000001F01D048EA02033D4AD36001340F2C6C
:103310006CD80125A540336803EA050835EA0303A4
:10332000F4D1736803F00303013B012B7FF668AF10
:10333000736803F00303032B0DD0B368022B3FF631
:103340007BAFFA68610003238B4022EA0302B36873
:103350008B401343FB60736803F00303022B3FF4BD
:1033600070AF3A68610003238B4022EA030273685E
:1033700003F003038B4013433B60736813F4403F37
:10338000C4D0002301931F4B5A6C42F480425A640C
:103390005B6C03F480430193019BA208911C174BC3
:1033A00053F8210004F0030399000F238B4020EA17
:1033B0000300104B9F423FF474AF03F580639F42BC
:1033C0000ED003F580639F420CD003F580639F42CB
:1033D0000AD003F580639F423FF461AF072361E7A2
:1033E00001235FE702235DE703235BE702B0BDE84B
:1033F000F08100BF0000024018C100080038014001
:10340000003C01400038024070B5054614460E46A7
:1034100021B1012C08D86CB1AE6170BD40F29D1194
:103420000648FFF773FDF4E74FF4CF710348FFF749
:103430006DFDF0E73604AE61EFE700BF18C100088C
:1034400038B505460C4641B16B6904EA030224EA2B
:10345000030444EA0244AC6138BD4FF4DB71024816
:10346000FFF754FDF0E700BF18C1000803685A6970
:1034700012F4806F01D1002070476FF480625A61AE
:1034800000230363202280F83D2080F83E30026C48
:1034900042F00402026480F83C30012070472DE9BC
:1034A000F04107460D4690461E4624E0FFF7DCFD3E
:1034B000069BC01AB04200D8EEB900233B6320221D
:1034C00087F83D2087F83E303A6C42F020023A649B
:1034D00087F83C3001201EE03B689C6925EA040C1B
:1034E0001FFA8CFCBCFA8CFC4FEA5C1CE04511D145
:1034F000B6F1FF3FDAD1C5F30743012BECD13B68AE
:103500005B6925EA030C1FFA8CFCBCFA8CFC4FEAC1
:103510005C1CEBE70020BDE8F0812DE9F041054699
:103520000E46174698463DE01A6842F400721A604B
:103530002B686FF480625A6100232B63202285F888
:103540003D2085F83E302A6C42F004022A6485F85A
:103550003C30012034E0FFF787FDA0EB0800B842C3
:1035600000D8FFB900232B63202285F83D2085F881
:103570003E302A6C42F020022A6485F83C3001205B
:103580001EE02B689C6926EA0404A4B2003C18BF24
:103590000124A4B12B685A6912F4806FC4D1B7F129
:1035A000FF3FD8D1C6F30743012BEAD12B685C69F2
:1035B00026EA0404A4B2003C18BF0124E9E7002075
:1035C000BDE8F08170B504460D46164623685B6978
:1035D00013F0800F1CD12046FFF748FFD0B9B5F19A
:1035E000FF3FF3D0FFF740FD801BA84201D8002D1C
:1035F000ECD100232363202284F83D2084F83E3060
:10360000226C42F02002226484F83C30012000E069
:10361000002070BD0120FCE72DE9F04385B0044691
:103620000D4691461F46DDF830800D9E03681968EF
:1036300041F4807119600096434600224FF0011159
:10364000FFF72DFF60B9236805F0FE051D613346C5
:10365000424626492046FFF760FF68B1012008E096
:1036600023681B6813F4807F02D04FF40073236437
:10367000032005B0BDE8F0830023039323685A6953
:1036800003929B690393039B324641462046FFF712
:1036900099FF30B9012F0FD123685FFA89F61E61B7
:1036A000E7E7236C042B01D00120E2E722681368CE
:1036B00043F400731360F7E723684FEA19221A6195
:1036C000324641462046FFF77DFF20B923685FFA66
:1036D00089F61E61CDE7236C042B01D00120C8E7D9
:1036E0002268136843F400731360F7E702000100D7
:1036F0002DE9F04784B004460D46164699460C9FC6
:10370000DDF834800268136843F480631360036853
:10371000196841F480711960CDF800803B460022A1
:103720004FF00111FFF7BBFE70B95FFA85FA23680D
:1037300005F0FE051D6143463A4641492046FFF724
:10374000ECFE68B1012008E023681B6813F4807F59
:1037500002D04FF400732364032004B0BDE8F08767
:103760000023039323685A6903929B690393039B85
:10377000424639462046FFF725FF80B9B9F1010FCF
:1037800018D12368F6B21E61424639462046FFF73B
:1037900019FF68B3236C042B24D00120DDE7236CD0
:1037A000042B01D00120D8E72268136843F400738A
:1037B0001360F7E72368320A1A6142463946204609
:1037C000FFF700FF18B92368F6B21E61DCE7236C2F
:1037D000042B01D00120C0E72268136843F4007372
:1037E0001360F7E72268136843F400731360D4E7AB
:1037F0002268136843F480731360CDF800803B4661
:1038000000224FF001112046FFF749FE68B92268F7
:103810004AF00103136143463A4609492046FFF73F
:103820007CFE002899D0012097E723681B6813F4D9
:10383000807F02D04FF40073236403208DE700BF24
:103840000200010070B504460D46164623685B6908
:1038500013F0040F1CD12046FFF708FED0B9B5F1D4
:10386000FF3FF3D0FFF700FC801BA84201D8002DDA
:10387000ECD100232363202284F83D2084F83E30DD
:10388000226C42F02002226484F83C30012000E0E7
:10389000002070BD0120FCE770B505460C461646B9
:1038A0002B68596911F0400F29D1596911F0100F97
:1038B00015D1FFF7D9FB801BA04201D8002CEFD116
:1038C00000232B63202285F83D2085F83E302A6CAA
:1038D00042F020022A6485F83C30012070BD6FF070
:1038E00010025A6100232B63202285F83D2085F8C1
:1038F0003E302A6C2A6485F83C300120EEE7002037
:10390000ECE70000002800F0368170B5044603683B
:103910009B4A93420CD002F58062934208D002F594
:103920008062934204D040F2BF119648FFF7EEFA4E
:103930006368013B944A934271D8A36813B1B3F50D
:10394000804F72D1E36823F47F7323F00303002BCD
:1039500071D12369B3F5804F02D0B3F5404F70D1D8
:103960006369012B73D8A36933F0FE0375D1E36952
:103970000BB1402B77D1236A0BB1802B79D194F80E
:103980003D30002B7BD0242384F83D30226813681F
:1039900023F0010313602268136843F400431360AB
:1039A0002268136823F40043136000F019FF626873
:1039B000764B9A4269D8764B98428CBF00230123FC
:1039C000002B40F0DA807349A1FB00318B0C256895
:1039D0006A6822F03F0242EA91426A6021680A6AFC
:1039E00022F03F026668694DAE4254D8013313435A
:1039F0000B622168CA6922F44F4222F0FF02666816
:103A0000624B9E4251D8431E7600B3FBF6F301335E
:103A100040F6FC7003427ED0C3F30B037CE04FF40E
:103A2000E0715848FFF772FA87E740F2C111554834
:103A3000FFF76CFA86E74FF4E1715248FFF766FA38
:103A400087E740F2C3114F48FFF760FA88E74FF469
:103A5000E2714C48FFF75AFA85E740F2C511494830
:103A6000FFF754FA83E74FF4E3714648FFF74EFA45
:103A700081E740F2C7114348FFF748FA7FE784F82F
:103A80003C302046FFF7A1FA7DE7434B98428CBFBC
:103A90000023012394E74FF4967505FB03F33F4D94
:103AA000A5FB03539B090133A1E7A368C3B9451ED6
:103AB00006EB460CB5FBFCF50135C5F30B05B5FA75
:103AC00085F56D09002D54D1C3B9013806EB4603C5
:103AD000B0FBF3F30133C3F30B0343F400431BE0E8
:103AE000451E06EB860C0CEB8C0CB5FBFCF501358A
:103AF000C5F30B05B5FA85F56D09E3E7013806EB6B
:103B0000860303EB8303B0FBF3F30133C3F30B032F
:103B100043F4404300E004231343CB6121680B6866
:103B200023F0C003E269206A024313430B6021685B
:103B30008B6823F4034323F0FF032269E068024308
:103B400013438B602168CB6823F0FF036269A0698F
:103B500002431343CB602268136843F001031360F0
:103B600000202064202384F83D30206384F83E0048
:103B700070BD0123D0E7012070470120F8E700BFA6
:103B8000005400406CC100087F1A0600A0860100A6
:103B90007F841E0083DE1B43FF083D00D34D62106F
:103BA0002DE9F04383B00446884691461F460C9E9B
:103BB000FFF75AFA0546012F01D0102F08D194F8CB
:103BC0003D30DBB2202B09D0022003B0BDE8F083EA
:103BD00040F6BA114E48FFF799F9F0E7009519231E
:103BE00001224C492046FFF75AFC002840F089800A
:103BF00094F83C30012B00F08680012384F83C309F
:103C000023681A6812F0010F03D11A6842F001020A
:103C10001A602268136823F400631360212384F878
:103C20003D30402384F83E30002323640A9B6362C6
:103C3000BDF82C306385638D2385374BE362019596
:103C400000963B464A4641462046FFF7E5FC0028E1
:103C50005BD1238D002B35D02A4631462046FFF715
:103C6000B1FC20BB626A236812781A61626A531C35
:103C70006362218D013989B22185638D9BB2013B3D
:103C80009BB263852368586910F0040FE1D00029C6
:103C9000DFD052781A61636A01336362238D013B7E
:103CA0002385638D9BB2013B9BB26385D1E7236C77
:103CB000042B01D0012088E72268136843F40073C5
:103CC0001360F7E72A4631462046FFF7BBFD50B1A7
:103CD000236C042B01D0012077E72268136843F49A
:103CE00000731360F7E72268136843F400731360EE
:103CF000202384F83D30002384F83E3084F83C30A3
:103D000063E7022061E702205FE701205DE700BF73
:103D10006CC10008020010000000FFFF2DE9F04315
:103D200087B00446884691461F46109EFFF79CF9CF
:103D30000546012F01D0102F09D194F83D30DBB298
:103D4000202B0AD00227384607B0BDE8F08340F6A2
:103D500035218C48FFF7DAF8EFE7009519230122A7
:103D600089492046FFF79BFB002840F0458194F8E5
:103D70003C30012B00F04281012384F83C30236861
:103D80001A6812F0010F03D11A6842F001021A609A
:103D90002268136823F400631360222384F83D3003
:103DA000402384F83E30002323640E9B6362BDF8F9
:103DB0003C306385638D2385744BE36201950096E7
:103DC0003B464A4641462046FFF792FC07460028FC
:103DD00040F01681238D5BB9029323685A690292E1
:103DE0009A690292029A1A6842F400721A6075E0A7
:103DF000012B0AD0022B1AD00023059323685A699D
:103E000005929B690593059B68E02268136823F47B
:103E1000806313600023039323685A6903929A69AD
:103E20000392039A1A6842F400721A6056E02268FC
:103E3000136823F4806313602268136843F40063FB
:103E400013600023049323685A6904929B690493C6
:103E5000049B43E02A4631462046FFF71DFD00281B
:103E600040F0D08023681A69636A1A70636A01336C
:103E70006362238D013B2385638D9BB2013B9BB223
:103E800063852BE000953346002241492046FFF729
:103E900006FB002840F0B8802268136843F40073E2
:103EA000136023681A69636A1A70626A531C63623A
:103EB000238D013B2385638D9BB2013B9BB26385C0
:103EC00023681B695370636A01336362238D013B6E
:103ED0002385638D9BB2013B9BB26385238D002BB1
:103EE00000F08180032B55D8012BB3D0022BC9D011
:103EF00000953346002226492046FFF7D0FA0028D5
:103F000040F084802268136823F480631360236880
:103F10001A69636A1A70636A01336362238D013B15
:103F20002385638D9BB2013B9BB26385009533462D
:103F3000002217492046FFF7B2FA002868D122680C
:103F4000136843F40073136023681A69636A1A7074
:103F5000626A531C6362238D013B2385638D9BB290
:103F6000013B9BB2638523681B695370636A01330D
:103F70006362238D013B2385638D9BB2013B9BB222
:103F80006385ABE76CC10008020010000000FFFF72
:103F9000040001002A4631462046FFF77DFC002838
:103FA00038D123681A69636A1A70626A531C6362A3
:103FB000238D013B2385638D9BB2013B9BB26385BF
:103FC0002368596911F0040F88D01B695370636A24
:103FD00001336362238D013B2385638D9BB2013BDB
:103FE0009BB263857AE7202384F83D30002384F870
:103FF0003E3084F83C30A6E60227A4E60227A2E67B
:104000000127A0E601279EE601279CE601279AE604
:10401000012798E6012796E6002800F05D8270B53A
:1040200082B0044603680F2B39D8236813F0010FC0
:104030004DD063682BB1B3F5803F02D0B3F5A02F0C
:1040400032D1804B9B6803F00C03042B36D07D4BA0
:104050009B6803F00C03082B2BD06368B3F5803FFB
:104060005FD0B3F5A02F62D0764B1A6822F480326D
:104070001A601A6822F480221A606368002B60D0EC
:10408000FEF7F2FF05466F4B1B6813F4003F1ED18D
:10409000FEF7EAFF401B6428F5D9032023E2E8215C
:1040A0006948FEF733FFC0E7ED216748FEF72EFFB2
:1040B000C7E7644B5B6813F4800FCED0614B1B687D
:1040C00013F4003F03D06368002B00F007822368DD
:1040D00013F0020F66D0E368012B41D823691F2B30
:1040E00044D8584B9B6813F00C0F4AD0554B9B6833
:1040F00003F00C03082B3FD0E368002B77D0534B21
:1041000001221A60FEF7B0FF05464E4B1B6813F004
:10411000020F63D1FEF7A8FF401B0228F5D9032048
:10412000E1E1484A136843F480331360A5E7454B47
:104130001A6842F480221A601A6842F480321A60C7
:104140009BE7FEF791FF05463E4B1B6813F4003FCB
:10415000BDD0FEF789FF401B6428F5D90320C2E1DA
:1041600040F21F113848FEF7D1FEB7E74FF49071C7
:104170003548FEF7CBFEB4E7324B5B6813F4800F93
:10418000BAD1304B1B6813F0020F03D0E368012B48
:1041900040F0A6812B4A136823F0F803216943EA13
:1041A000C1031360236813F0080F51D06369012B1A
:1041B0002FD863699BB3254B0122C3F8802EFEF7ED
:1041C00053FF05461F4B5B6F13F0020F40D1FEF704
:1041D0004BFF401B0228F5D9032084E1194A1368DC
:1041E00023F0F803216943EAC1031360DAE7174BB0
:1041F00000221A60FEF738FF0546124B1B6813F0C9
:10420000020FCFD0FEF730FF401B0228F5D9032064
:1042100069E14FF4B0710C48FEF778FEC9E70B4B2B
:104220000022C3F8802EFEF71FFF0546054B5B6F8B
:1042300013F0020F0CD0FEF717FF401B0228F5D930
:10424000032050E100380240BCC100080000474292
:10425000236813F0040F7CD0A368012B01D9052B30
:1042600038D1A44B1B6C13F0805F39D1002301932C
:10427000A04B1A6C42F080521A641B6C03F08053FE
:104280000193019B01259C4B1B6813F4807F29D06F
:10429000A368012B3AD0052B3ED0964B1A6F22F023
:1042A00001021A671A6F22F004021A67A368002B32
:1042B0003CD0FEF7D9FE06468E4B1B6F13F0020F63
:1042C00045D1FEF7D1FE801B41F288339842F3D9E5
:1042D000032008E14FF4C6718848FEF717FEC0E7D7
:1042E0000025D0E7844A136843F480731360FEF717
:1042F000BBFE0646804B1B6813F4807FC8D1FEF7D7
:10430000B3FE801B0228F5D90320ECE0794A136F35
:1043100043F001031367C9E7764B1A6F42F00402BA
:104320001A671A6F42F001021A67BFE7FEF79CFE98
:104330000646704B1B6F13F0020F08D0FEF794FE79
:10434000801B41F288339842F3D90320CBE0002D43
:104350003BD1A369022B3ED8A369002B00F0C28099
:10436000644A926802F00C02082A00F09080022B46
:1043700079D1E36913B1B3F5800F32D1236A3F2BB2
:1043800035D8636A323BB3F5BF7F36D8A36A022BB8
:1043900005D0042B03D0062B01D0082B33D1E36AC0
:1043A000023B0D2B35D8564B00221A66FEF75CFEF9
:1043B0000546504B1B6813F0007F30D0FEF754FECB
:1043C000401B0228F5D903208DE04A4A136C23F0E4
:1043D00080531364BDE740F2CF114848FEF796FDC5
:1043E000BAE74FF4EC714548FEF790FDC6E740F29E
:1043F000D9114248FEF78AFDC3E74FF4ED713F48FB
:10440000FEF784FDC2E740F2DB113C48FEF77EFD7B
:10441000C5E74FF4EE713948FEF778FDC3E7E3696D
:10442000226A1343626A43EA8213A26A5208013A7B
:1044300043EA0243E26A43EA02632E4A5360304B86
:1044400001221A66FEF710FE04462A4B1B6813F081
:10445000007F06D1FEF708FE001B0228F5D90320D5
:1044600041E000203FE0264B00221A66FEF7FCFDEB
:104470000446204B1B6813F0007F06D0FEF7F4FDC6
:10448000001B0228F5D903202DE000202BE0012B92
:104490002BD0184B5B6803F48001E269914226D16E
:1044A00003F03F02216A8A422CD1616A47F6C0724A
:1044B0001A40B2EB811F27D103F44031A26A52089F
:1044C000013AB1EB024F21D103F07063E26AB3EB22
:1044D000026F1DD1002006E001207047012002E09C
:1044E000012000E0002002B070BD0120FBE70120A8
:1044F000F9E700BF0038024000700040BCC100086E
:10450000000047420120EEE70120ECE70120EAE746
:104510000120E8E708B5254B9B6803F00C03042B4A
:104520003FD0082B3FD1214B5A6802F03F025B6815
:1045300013F4800F12D01D4B5968C1F388111C4829
:104540000023A1FB0001FBF75BFE184B5B68C3F384
:10455000014301335B00B0FBF3F025E0134B5968D6
:10456000C1F3881C4FEA4C11B1EB0C006EEB0E0E40
:104570004FEA8E1343EA90638101091A63EB0E033D
:10458000DB0043EA5173C90011EB0C0C43F100034B
:10459000990200234FEA8C2041EA9C51FBF730FE40
:1045A000D3E7034800E0034808BD00BF00380240DD
:1045B00040787D010024F400002800F0F78070B5F9
:1045C0000D4604460368013B0E2B6BD8072D6FD8B0
:1045D0007A4B1B6803F00703AB4208D2EBB2774A71
:1045E0001370136803F00703AB4240F0E1802368C7
:1045F00013F0020F29D013F0040F04D0704A93680F
:1046000043F4E0539360236813F0080F04D06C4A1E
:10461000936843F460439360A3687BB1802B0DD013
:10462000902B0BD0A02B09D0B02B07D0C02B05D0DE
:10463000D02B03D0E02B01D0F02B3FD1604A936800
:1046400023F0F003A1680B439360236813F0010F7C
:104650004ED06368032B37D86368012B3AD09A1E7B
:10466000012A3ED9564A126812F0020F00F0A280C9
:1046700053498A6822F0030213438B60FEF7F4FC6F
:1046800006464F4B9B6803F00C036268B3EB820F46
:104690002ED0FEF7E9FC801B41F288339842F0D916
:1046A000032076E04FF417714648FEF72FFC8DE7A4
:1046B00040F25D214348FEF729FC89E74FF4207161
:1046C0004048FEF723FCB9E740F287213D48FEF75A
:1046D0001DFCC1E73A4A126812F4003FC8D101201C
:1046E00057E0374A126812F0007FC1D1012050E034
:1046F000324B1B6803F00703AB4207D9EAB22F4BDA
:104700001A701B6803F00703AB4255D1236813F0FE
:10471000040F14D0E3685BB1B3F5805F08D0B3F544
:10472000A05F05D0B3F5C05F02D0B3F5E05F31D133
:10473000234A936823F4E053E1680B4393602368B2
:1047400013F0080F15D023695BB1B3F5805F08D073
:10475000B3F5A05F05D0B3F5C05F02D0B3F5E05F5D
:104760001ED1174A936823F46043216943EAC103C9
:104770009360FFF7CFFE124B9B68C3F30313124AFB
:10478000D35CD840114B1860114B1868FEF720FC21
:10479000002070BD40F2C5210A48FEF7B7FBC7E70D
:1047A0004FF433710748FEF7B1FBDAE70120704799
:1047B0000120EEE70120ECE70120EAE7003C02409F
:1047C00000380240BCC10008B0C200080800002048
:1047D00004000020014B1868704700BF080000204B
:1047E00008B5FFF7F7FF044B9B68C3F38223034A26
:1047F000D35CD84008BD00BF00380240C0C20008EA
:1048000008B5FFF7E7FF044B9B68C3F34233034A45
:10481000D35CD84008BD00BF00380240C0C20008C9
:104820007047000010B5044603682B4A93421FD01E
:10483000B3F1804F1CD0A2F57C42934218D002F510
:104840008062934214D002F58062934210D002F548
:104850009A3293420CD002F58062934208D002F55E
:104860008062934204D04FF4CA711C48FEF74EFB9D
:1048700094F83D30DBB2012B2AD1022384F83D307D
:104880002368154A934218D0B3F1804F15D0A2F592
:104890007C42934211D002F5806293420DD002F522
:1048A0008062934209D002F59A32934205D01A6889
:1048B00042F001021A6000200BE09A6802F0070241
:1048C000062A07D01A6842F001021A60002000E0B0
:1048D000012010BD0020FCE7000001400CC20008D0
:1048E00010B5044603681B4A93421FD0B3F1804FB2
:1048F0001CD0A2F57C42934218D002F5806293420C
:1049000014D002F58062934210D002F59A3293429D
:104910000CD002F58062934208D002F58062934287
:1049200004D040F2B9110C48FEF7F0FA2368196A76
:1049300041F21112114208D1196A40F24442114267
:1049400003D11A6822F001021A60012384F83D3075
:10495000002010BD000001400CC200080368254A79
:1049600090420ED0B0F1804F0BD0A2F57C42904225
:1049700007D002F58062904203D002F58062904237
:1049800003D123F070034A6813431A4A90421AD0A5
:10499000B0F1804F17D0A2F57C42904213D002F5BF
:1049A000806290420FD002F5806290420BD002F5F7
:1049B0009A32904207D002F58062904203D002F50D
:1049C0008062904203D123F44073CA68134323F0FA
:1049D00080034A69134303608B68C3620B68836278
:1049E000044B984202D00123436170470B69036373
:1049F000F9E700BF00000140002875D010B504465B
:104A000003683A4A93421FD0B3F1804F1CD0A2F5FD
:104A10007C42934218D002F58062934214D002F592
:104A20008062934210D002F59A3293420CD002F584
:104A30008062934208D002F58062934204D040F233
:104A400013112B48FEF762FAA3683BB1102B05D077
:104A5000202B03D0402B01D0602B2DD123692BB10B
:104A6000B3F5807F02D0B3F5007F2BD1A3690BB1E2
:104A7000802B2DD194F83D3083B3022384F83D3050
:104A8000214651F8040BFFF769FF012384F84630F3
:104A900084F83E3084F83F3084F8403084F8413068
:104AA00084F8423084F8433084F8443084F8453048
:104AB00084F83D30002010BD4FF48A710C48FEF799
:104AC00025FACBE740F215110948FEF71FFACDE7AA
:104AD0004FF48B710648FEF719FACBE784F83C30A7
:104AE0002046FFF79DFEC8E7012070470000014007
:104AF0000CC2000838B504464268574B9A423FD86A
:104B0000E36813B1B3F5005F40D123692BB1B3F56E
:104B1000806F02D0B3F5C06F3ED163694FF6F37278
:104B2000134200D123B940F659614C48FEF7EEF923
:104B30002268136923F44053E1680B431361A368AF
:104B40002269134362691343E2691A432168CB68FF
:104B500023F4164323F00C031343CB6022685369FC
:104B600023F44073A1690B43536123683C4A934289
:104B700018D002F58062934214D0FFF731FE13E0A3
:104B800040F656613548FEF7C1F9B9E740F657617E
:104B90003248FEF7BBF9B8E740F658612F48FEF7F8
:104BA000B5F9BAE7FFF72CFEE369B3F5004F29D05A
:104BB0000021031849411B1841F10001C90041EAD5
:104BC0005371DB00181863684FEA83024FEA93734E
:104BD00041F10001FBF714FB224DA5FB0032510906
:104BE000642303FB11031B013233A5FB03235B0981
:104BF00003F0F00202EB011203F00F0321681344EB
:104C00008B6038BD0023021843EB0301121841F1F9
:104C10000001C90041EA5271D200101841F10001AF
:104C2000626892185B41FBF7EBFA0E4DA5FB003270
:104C30005109642303FB1103DB003233A5FB03237B
:104C40005B095A0002F4F87202EB011203F0070349
:104C5000216813448B60D4E7A037A0005CC2000831
:104C6000001001401F85EB512DE9F84305460F4622
:104C700016469946DDF820802C68246837EA04033C
:104C80000CBF4FF0010C4FF0000CB4452DD1B8F122
:104C9000FF3FF1D0B8F1000F05D0FEF7E5F9A0EB2A
:104CA00009004045E8D92A6802F10C0353E8003FA7
:104CB00023F4D0730C3242E800310029F3D12A6882
:104CC00002F1140353E8003F23F00103143242E8D9
:104CD00000310029F3D1202385F83D3085F83E309E
:104CE000002385F83C30032000E00020BDE8F88375
:104CF000002877D010B5044683690BB303683A4A9D
:104D000093420CD0A2F54C42934208D002F5504297
:104D1000934204D04FF4B9713448FEF7F7F8A36911
:104D2000FBB1B3F5807F1CD0B3F5007F19D0B3F58C
:104D3000407F16D040F273112C48FEF7E7F810E0E0
:104D40000368294A93420CD0A2F54C42934208D002
:104D500002F55042934204D040F277112348FEF707
:104D6000D5F8A36813B1B3F5805F29D1E36913B116
:104D7000B3F5004F2AD194F83D306BB3242384F867
:104D80003D302268D36823F40053D3602046FFF7F8
:104D9000B1FE2268136923F49043136122685369BA
:104DA00023F02A0353612268D36843F40053D3608D
:104DB00000202064202384F83D3084F83E3010BD6C
:104DC00040F279110948FEF7A1F8CFE74FF4BD7121
:104DD0000648FEF79BF8CEE784F83C302046FEF705
:104DE000F5F8CBE701207047001001405CC20008D5
:104DF0002DE9F04182B01E4690F83D30DBB2202B09
:104E000054D104460D469046002953D0002A53D071
:104E100090F83C30012B51D0012380F83C30002326
:104E20000364212380F83D30FEF71EF90746A4F8FD
:104E30002480A4F82680A368B3F5805F05D04FF0E6
:104E40000008002384F83C3012E0236913B14FF0CE
:104E50000008F6E7A8460025F3E738F8023B226889
:104E6000C3F308035360E28C92B2013A92B2E28437
:104E7000E38C9BB273B100963B4600228021204612
:104E8000FFF7F2FEE0B9002DE7D015F8012B2368FB
:104E90005A60E8E700963B46002240212046FFF793
:104EA000E3FE78B9202384F83D3000E0022002B010
:104EB000BDE8F0810120FAE70120F8E70220F6E7DB
:104EC0000320F4E70320F2E7DFF834D00D480E4961
:104ED0000E4A002302E0D458C4500433C4188C4254
:104EE000F9D30B4A0B4C002301E013600432A242B9
:104EF000FBD300F077F800F085F8FEF75DF8704717
:104F00000000022000000020B809002020C800088E
:104F1000B8090020040B0020FEE7FEE7FEE7FEE7ED
:104F2000FEE7FEE770477047704708B5FEF790F858
:104F300008BD0120704708B500F05EF81623036035
:104F40004FF0FF3008BD08B54FF0FF31FFF7F3FF1A
:104F5000FEE770B50C461646002506E0AFF300806C
:104F6000214601F8010B01350C46B542F6DB30460F
:104F700070BD70B50C461646002504E014F8010B10
:104F8000AFF300800135B542F8DB304670BD00005C
:104F900008B503460B4A126842B10A4A1068034436
:104FA0006A46934206D8074A136008BD054A064977
:104FB0001160F2E700F020F80C2303604FF0FF309F
:104FC000F3E700BFB80A0020080B00204FF0FF30C5
:104FD00070474FF400534B6000207047012070472A
:104FE000002070477047000008B5062000F080F8E8
:104FF0000120FFF7A8FF00BF014B1868704700BFF2
:105000000C00002070B50D4E0D4D761BB61006D06D
:10501000002455F8043B01349847A642F9D1094EC3
:10502000094D761B05F046FFB61006D0002455F852
:10503000043B01349847A642F9D170BD14C800085A
:1050400014C800081CC8000814C80008830730B53D
:1050500048D0541E002A3FD0CAB2034601E0013CAA
:105060003AD303F8012B9D07F9D1032C2DD9CDB2EA
:1050700045EA05250F2C45EA054536D9A4F110026D
:1050800022F00F0C03F1200EE6444FEA121C03F14C
:10509000100242E9045542E9025510327245F8D136
:1050A0000CF1010214F00C0F03EB021204F00F0CD0
:1050B00013D0ACF1040323F003030433134442F888
:1050C000045B9342FBD10CF003042CB1CAB21C4424
:1050D00003F8012B9C42FBD130BD64461346002CE3
:1050E000F4D1F9E703461446BFE71A46A446E0E7C1
:1050F00038B5154B1F281D6820D8D5F8DC2204468A
:1051000062B152F820304BB1012B15D0591C0FD091
:10511000002542F820509847284638BD284600F020
:105120002BF8224601462846BDE8384000F00EB86C
:1051300016232B60012038BD002038BD16232B60BC
:105140004FF0FF3038BD00BF0C00002070B50C469A
:10515000084D03460026204611461C462E60FFF7E8
:10516000EAFE431C00D070BD2B68002BFBD02360EF
:1051700070BD00BF000B0020FFF7DBBE0EB410B502
:105180009DB06FF000411FABCDE9060104910949C4
:1051900053F8042B0290084C0868019302A9059467
:1051A00000F00CF8029B00221A701DB0BDE8104000
:1051B00003B070470C0000200802FFFF2DE9F04FFC
:1051C000D5B00C460C9191460E930A9002F086FEE3
:1051D000036817931846FCF7F3F9A389169019068C
:1051E00003D52369002B00F08B8700242BAB4D46A1
:1051F000CDE92944CDE91944CDE91B441294289303
:1052000098461894002308940024CDE914342B7890
:10521000002B00F0DD81AA4604E01AF8013F002BC4
:1052200000F01681252BF8D1BAEB050640F0148169
:105230009AF80030002B00F0CB8100234FF0FF32B2
:105240009AF801608DF8833009930AF1010A0792F8
:105250001F462B244FF020090AF1010AA6F1200372
:105260005A2B00F22D81DFE813F0BA022B012B013B
:10527000B5022B012B012B016A002B012B014F02E0
:10528000E3022B015A02C9022B01C4025B005B003E
:105290005B005B005B005B005B005B005B002B0165
:1052A0002B012B012B012B012B012B01BF012B010A
:1052B0001A028600BF01BF01BF012B012B012B0188
:1052C0002B01B0022B012B01C3002B012B012B0161
:1052D00024022B015F022B012B013C072B012B0128
:1052E0002B012B012B012B012B012B01BF012B01CA
:1052F0001A028800BF01BF01BF01A302880081001C
:105300002B0196022B018202C500700281002B0145
:1053100024027E0039072B012B0119072B017E0087
:10532000A6F1300300221AF8016B02EB820203EBB4
:105330004202A6F13003092BF5D909928EE7DDF878
:1053400028B0584602F0CAFD43681B931846FCF784
:1053500037F91C900646584602F0C0FD8368199341
:10536000002E40F07A869AF8006075E79AF800609F
:1053700047F0200770E747F01007BA060E9B40F190
:105380008081073323F007031A465B6852F8084B05
:105390000E929946002BC0F25F85079B013301F006
:1053A0001F8054EA090327F0800B00F0E3840A2CE5
:1053B00079F1000380F08187303401238DF84F416B
:1053C0005F460B930DF24F1507990B989DF88320BC
:1053D00081424FF00003B8BF01460D9306910F9331
:1053E00013931093002A7CD0069B0133069378E038
:1053F00047F0100717F0200900F034810E9B0733A7
:1054000023F00703D3F8049053F8084B0E9327F4C6
:10541000806B002300228DF88320079A511C00F036
:105420000D8254EA09012BF0800740F00682002A21
:1054300041F01080002B40F0A2841BF001030B937D
:1054400000F0378530238DF84F310DF24F15BBE753
:10545000BAEB050600F0BC802A9B33442A93299BB3
:105460000133072BC8E90056299305DC08F1080829
:10547000089B33440893DBE60C990A9828AA03F0AA
:105480001BFC80B90DF1AC08F2E70C990A9828AA28
:1054900003F012FC002800F08C800D9B1BB10D99CD
:1054A0000A9802F015FC0C9B9B8913F0400F089B97
:1054B00018BF4FF0FF330893089855B0BDE8F08F40
:1054C000002E00F0858000228DF8EC608DF883209E
:1054D000012306930D920B9307920F921392109251
:1054E0003BAD17F0020302D006990231069117F086
:1054F000840B07D109990698A1EB0009B9F1000FB7
:1055000000F315832A9C8AB1299A0DF18301013297
:105510000134C8F80010072A4FF001012A9429929B
:10552000C8F8041000F3468308F1080883B1299BEA
:1055300021AA01330234C8F80020072B4FF00202E1
:105540002A942993C8F8042000F3488308F1080836
:10555000BBF1800F00F00E82079B0B9AA3EB020BAE
:10556000BBF1000F00F34F82FB0500F1A5810B9BFF
:10557000C8F804301C44299BC8F800500133072B9D
:105580002A94299300F3C78208F108087B0705D500
:10559000099B069A9D1A002D00F32C83DDE9083241
:1055A00006998A42ACBF9B185B180893002C7FF4C5
:1055B0006CAF002329930D9B1BB10D990A9802F043
:1055C00087FB0DF1AC0855462B78002B7FF423AEFA
:1055D0002A9B002B3FF467AF0C9C0A9828AA21460F
:1055E00003F06AFBA38960E70E9B073323F00702F1
:1055F000F2E80234CDE91434DDE9143424F0004437
:105600000E92994618462146A74B4FF0FF32FCF701
:105610009BFC002840F06284A34B484621464FF093
:10562000FF32FCF773FC002840F05884DDE91401D8
:1056300000220023FCF760FC002840F0AD879DF8B5
:1056400083209A4D9A4B27F080070321472EC8BF2D
:105650001D4600230D9306910B9107930F9313930F
:105660001093BFE617F0100340F02E8417F04002AD
:1056700000F054870E9A52F8044B0E929946A4B249
:10568000C5E653F8044B0E93FB0600F118847D0623
:1056900040F1128444F3C0394B4624B27AE60E9BA3
:1056A000002253F8041B8DF883208DF8EC100E9324
:1056B0000EE70E9C079B54F8045B4FF000098DF831
:1056C0008390002D00F0D5865A1C00F052851A46B2
:1056D00049462846FBF71CFF0D90002801F0578033
:1056E0000D9BCDF81C905B1B0B930E9423EAE37388
:1056F0009DF883200693CDF83490CDF83C90CDF8FA
:105700004C90CDF840906DE60E9B53F8042B099217
:10571000002A80F2C983099A0E93524209929AF89C
:10572000006047F0040797E547F0100B1BF02009D5
:1057300000F081830E9B073323F00703D3F8049016
:1057400053F8084B0E93012364E60E9B53F8044B69
:105750000E93302378268DF88430564B189347F0FB
:10576000020B8DF885604FF00009022352E6BD065A
:1057700000F18284FC0600F17386780600F13C8714
:10578000B90540F16D860E9B089953F8042B0E93D2
:105790001170554618E79AF800606C2E03BF9AF80E
:1057A000016047F020070AF1010A47F0100753E5AE
:1057B0009AF80060682E03BF9AF8016047F40077FA
:1057C0000AF1010A47F0400746E59AF8006047F001
:1057D000080741E59AF8006047F001073CE59DF8AD
:1057E0008330002B7FF4BFAD9AF800608DF8839072
:1057F00032E59AF8006047F080072DE5524612F82E
:10580000016B2A2E01F0CD81A6F13003092B9246BF
:1058100098BF002201F288801AF8016B02EB820225
:1058200003EB4202A6F13003092BF5D9079215E5E7
:105830009AF800608DF883400EE5BB46012B3FF4DB
:10584000B6AD022B54AD12D1189A04F00F032409FF
:10585000D35C05F8013D44EA09744FEA191954EA8A
:105860000903F2D154AB5B1B5F460B93ACE504F02C
:105870000703E40844EA49744FEAD909303354EA8B
:1058800009012A4605F8013DF1D11BF0010FE9D0CD
:10589000302BE7D03023023A05F8013C54AB9B1A79
:1058A0005F460B9315468FE5FFFFEF7FCCC20008E4
:1058B000D0C20008DCC20008652E40F3E680DDE9B6
:1058C000140100220023FCF70DFB002800F0CD811D
:1058D000299BBF4AC8F80020013301340122072B5D
:1058E0002A942993C8F8042000F37D8508F108085C
:1058F000229B129A934280F2D382169B179A1C44E1
:10590000C8E90023299B2A940133072B299300F32C
:10591000EB8308F10808129B5D1E002D7FF736AE61
:10592000102D299BDFF8AC9240F36E854946224644
:10593000B946DDF828B00C9C10260F4605E008F1AA
:105940000808103D102D40F35B8501331032072B02
:10595000C8E90076CDE92932F1DD28AA214658466A
:1059600003F0AAF900287FF498ADDDE929320DF1A2
:10597000AC08E6E7099B069AA3EB020BBBF1000F0C
:105980007FF7EAADBBF1100F299ADFF848922CDDC2
:105990001D9621464E460C9CDDF82890102306E00B
:1059A000ABF1100BBBF1100F08F108081ADD013242
:1059B0001031072AC8E90063CDE92921F0DD28AAC2
:1059C000214648460DF1AC0803F076F900287FF433
:1059D00064ADABF1100BBBF1100FDDE929214FF0E5
:1059E0001003E4DCB1461D9E0C4601325C44072ADC
:1059F000CDE92924C8F80090C8F804B000F31D854B
:105A000008F10808A8E5BBF1100F299ADFF8C49146
:105A10002DDD41462046A8464C460C9DDDF82890D9
:105A2000102306E0ABF1100BBBF1100F01F10801E0
:105A300019DD01321030072AC1E90043CDE92920E0
:105A4000F0DD28AA2946484603F036F900287FF4FD
:105A500024ADABF1100BBBF1100FDDE929202BA910
:105A60004FF01003E5DC4546A14688460446013266
:105A70005C44072ACDE92924C8F80090C8F804B08E
:105A800000F3CC8108F108086EE5129B012B40F36E
:105A90007C81299EC8F80050013601340123072E6D
:105AA0002A942996C8F8043000F3E08108F1080828
:105AB000169B179A01361C44072EC8E90023CDE92E
:105AC000296400F3E08108F10808DDE914010022EF
:105AD0000023FCF707FA002840F07481129B01367E
:105AE000013B01351C44072EC8F800502996C8F820
:105AF00004302A9400F3598108F108081A9BC8F869
